:020000040000fa
:10000000f07f0020857600001f7e0000ff7f00004b
:1000100000000000000000000000000000000000e0
:10002000000000000000000000000000ab7c0000a9
:100030000000000000000000ab7c000035860000de
:10004000ab7c0000ab7c0000ab7c0000ab7c000014
:10005000097b0000ab7c0000ab7c0000ab7c0000a7
:10006000ab7c000011630000ab7c0000ab7c0000a7
:10007000ab7c0000ab7c0000ab7c0000ab7c0000e4
:10008000ab7c0000ab7c0000cd7a0000ab7c0000b4
:10009000ab7c0000ab7c0000ab7c0000ab7c0000c4
:1000a000ab7c0000ab7c0000ab7c0000ab7c0000b4
:020000040000fa
:1000b000f8b5c046f8bc08bc9e467047657600009f
:1000c000f8b5c046f8bc08bc9e4670473d760000b7
:020000040000fa
:0800d000a84900000100000036
:020000040000fa
:1000d800f0b5de4657464e464546e0b585b0039036
:1000e8000e0001921c000eab1b789a460fab1b78d2
:1000f8009b46c34b1a881b889bb2092b09d8002939
:1001080007d0c04b1b68c04a934202d2bf4a9342f1
:1001180003d2bf49bf4806f037fbbf4b1968002917
:1001280006d00722b94808f06ffabb4b00221a60c4
:10013800002008f0cdfab94b1b78012b00d14ee115
:10014800012008f0c5faae4b1b889bb2082b00d9da
:10015800e0e2002008f0bcfaaa4b1d682800b04b6a
:100168001f687f1bbbb29946ae4b1b685b1b029393
:100178004a46a14500d2221c92b2a9188c46aa4927
:100188008c4500d962e1029b1b041b0c6246d21805
:100198008a4200d98ee1a54b1b68984200d8c2e17b
:1001a800a34b1b68984202d89a4200d3bee1954bf4
:1001b800614619609b4b1a603a04120c914b1b68fc
:1001c8009b18974a1360904aa846934200d3b2e11d
:1001d8008c4b1b684a46062a00d8b1e10722290041
:1001e8009946180008f010fa012008f071fa4846fc
:1001f80007303a04120c073ae91d08f005fa032201
:100208003100404608f000fa5346012b00d0a1e126
:100218005b46002b00d11ee24346d81ca21ff11cee
:1002280008f0f2f94444e31e019a1a70a31e170a53
:100238001f70013c5b4623705346002b2bd07d4b2f
:100248001b889bb2002b0bd07b4b1b686f4a9342d9
:1002580002d36d4a934203d378496e4806f094fa64
:10026800002008f035fa734b1b889b00724a9b5894
:10027800002b03d07249674806f086fa6d4a138846
:100288009b006d4940465850138801339bb2138038
:10029800012008f01dfa664b012252421a60664b93
:1002a8001c68002c2fd02500584b9c4202d3564b7b
:1002b8009c4204d33c21ff31564806f065fa514b65
:1002c8001b68ab4200d3d4e1002008f001fa4d4b83
:1002d8001e68a61b012008f0fbf9554b1a68494b0c
:1002e8001b689a4200d8d1e1002008f0f1f9504b80
:1002f8001d68444b1b68ed1a012008f0e9f9ae426d
:1003080001d24b4b1c604f4b1c68002c2fd0250092
:100318003e4b9c4202d33c4b9c4204d33c21ff31d0
:100328003c4806f031fa374b1b68ab4200d3bbe1bf
:10033800002008f0cdf9334b1e68a61b012008f0f9
:10034800c7f93b4b1a682f4b1b689a4200d8b8e193
:10035800002008f0bdf9364b1d682a4b1b68ed1ac2
:10036800012008f0b5f9ae4201d2314b1c60364b82
:100378001c68002c00d1d5e12500244b9c4202d3f7
:10038800214b9c4204d33c21ff31224806f0fcf962
:100398001c4b1b68ab4200d3a1e1002008f098f980
:1003a800184b1e68a61b012008f092f9204b1a680a
:1003b800144b1b689a4200d89ee1002008f088f987
:1003c8001b4b1d680f4b1b68ed1a012008f080f9c4
:1003d8000020ae4200d39ee1154b1c609be10f4b01
:1003e80000221a700f4b1968064b186800f0b6f90e
:1003f800002800d1a4e6f721064806f0c5f99fe6d3
:10040800aa13002064130020090d0020740b00209b
:1004180065050000b07e000060130020a90f0020d1
:100428006c13002068130020080d002078130020aa
:1004380074130020a8130020201200209706000043
:1004480099060000a8110020ac0f0020b84b1b68cb
:100458009846984201d88b4222d9b64b1b689c46d5
:10046800984201d899421bd2029b1b04180cb24b2c
:1004780019188918434501d8414516d2634501d852
:10048800614512d2d218ad4b1a603b041b0c9b1865
:10049800ab490b601218ab4b1a60a74b984697e60e
:1004a800012008f015f9ff2035e1012008f010f9c6
:1004b800ff2030e19e4a1268904690421ad99d4a20
:1004c8001268904206d8944523d2404500d82be1c3
:1004d800914219d29849cb18414501d843451dd2bc
:1004e800914201d8934219d2944a93491160954a8e
:1004f800136061e694450cd28e4a12689042e2d9a4
:100508004045e7d84145e5d3012008f0e1f8ff2050
:1005180001e1012008f0dcf8ff20fce0012008f0f0
:10052800d7f8ff20f7e09a4200d239e6012008f018
:10053800cff8ff20efe08449844806f025f947e624
:100548003a04120c2900180008f05ef8012008f09f
:10055800bff854e6002008f0bbf87d4a11887d4baf
:10056800090159188c80118809014046c850118822
:100578000901591803988860108851464d1ea941f1
:10058800c9b200011b18197313889bb2002b0cd039
:100598006f4a138801339bb2138013889bb2092bcf
:1005a80053d8012008f094f832e66a4b1d68002df4
:1005b800eed02f00604b9d4202d3674b9d4204d37f
:1005c8003c21ff31614806f0dff85c4b1b68bb42f9
:1005d8001fd2002008f07cf8584b1b68eb1a99468c
:1005e800012008f075f8534b1a68544b1b689a425f
:1005f8001dd9002008f06cf84e4b1a684f4b1f6845
:10060800d71b012008f064f8b945c1d2494b1d60d9
:10061800bee7002008f05cf8484b1a682b009633b8
:10062800ff339b1a9946012008f052f8dbe70020b7
:1006380008f04ef83f4b1b689633ff333f4a176864
:10064800df1b012008f044f8dee7ce21c9003f484f
:1006580006f09af8a5e74346d81c621ff11c07f07c
:10066800d3ff4444a31e019a1a70013c170a27704d
:10067800e2e5002008f02cf8304b1b68260096367f
:10068800ff36f61a012008f023f826e6002008f0c5
:100698001ff8284b1d689635ff35284b1b68ed1a47
:1006a800012008f015f82ae6002008f011f8234b7d
:1006b8001b6826009636ff36f61a012008f008f85f
:1006c8003fe6002008f004f81a4b1d689635ff3500
:1006d8001a4b1b68ed1a012007f0faff43e60020c9
:1006e80007f0f6ff154b1b6826009636ff36f61afc
:1006f800012007f0edff59e6002007f0e9ff0d4b58
:100708001d689635ff350d4b1b68ed1a012007f063
:10071800dfff5de6ff2005b03cbc90469946a24647
:10072800ab46f0bd0020f6e7414500d2d0e6ebe647
:100738007813002074130020740b00206413002029
:100748006c130020681300203d060000b07e0000f6
:0c075800aa130020ac0f0020090d0020a7
:020000040000fa
:10076400f8b5de4657464e464546e0b50e00d74b33
:10077400994200d90be3d64b1b68050083420dd385
:100784008b420bd8d24b00221a60d24b1a681379d1
:10079400ff2b03d0013313716423d370ce4b1b683a
:1007a40000209d4200d9f3e2b34200d9f0e2c94be4
:1007b4001b686422da70c94b9a469b4667e00020a6
:1007c40007f088ffc64b1a6823009633ff339b1a41
:1007d4009846012007f07effd1e0002007f07aff61
:1007e400bd4b1f689637ff37bd4b1b68ff1a0120ae
:1007f40007f070ffd5e0002007f06cffb84b1a68d3
:1008040023009633ff339b1a9846012007f062ffba
:10081400eae0002007f05effaf4b1f689637ff3712
:10082400af4b1b68ff1a012007f054ffeee03c2198
:10083400ff31ac4805f0aaffa94b1b68bb4200d3ab
:10084400f7e0002007f046ffa54b1b68e31a984623
:10085400012007f03fffa04b1a68a14b1b689a4286
:1008640000d8f4e0002007f035ff9b4b1f689c4b39
:100874001b68ff1a012007f02dffb84501d2964be3
:100884001c60944b1a681379ff2b00d0ede053469b
:100894001b68ab4200d256e25b461b68b34200d9e8
:1008a40051e2914b1b889bb2002b00d14be28e4b43
:1008b4001b889bb2002b04d08b4b1b889bb20a2b4a
:1008c40004d9e7218900874805f060ff864b1b881f
:1008d4009bb2002b17d00024804b9846824b99463c
:1008e400002007f0f7fe671ce400fb004444434487
:1008f40006cb06c4012007f0edfebcb24b461b88b4
:100904009bb29c42ecd3002007f0e4fe764b1b889c
:100914009bb2002b0dd0744a1388013b9bb2138009
:1009240011886e4bc9000020c8501288d2009b1851
:100934005860012007f0cefe674b012252421a6034
:100944006a4b1c68002c30d02700694b9c4202d3b0
:10095400684b9c4204d33c21ff31624805f016ffea
:100964005f4b1b68bb4200d329e7002007f0b2feaf
:100974005b4b1b68e31a9846012007f0abfe564b0d
:100984001a68574b1b689a4200d826e7002007f0e4
:10099400a1fe514b1f68524b1b68ff1a012007f040
:1009a40099feb84501d24c4b1c604c4b1c68002c82
:1009b40030d027004e4b9c4202d34e4b9c4204d372
:1009c4003c21ff31474805f0e1fe454b1b68bb4223
:1009d40000d310e7002007f07dfe414b1b68e31aab
:1009e4009846012007f076fe3b4b1a683c4b1b6887
:1009f4009a4200d80de7002007f06cfe364b1f68c2
:100a0400374b1b68ff1a012007f064feb84501d27a
:100a1400314b1c60384b1c68002c00d131e7270097
:100a2400334b9c4200d202e7324b9c4200d203e794
:100a3400fde6002007f04efe294b1a68230096338a
:100a4400ff339b1a9846012007f044fe03e7002079
:100a540007f040fe204b1f689637ff37204b1b687a
:100a6400ff1a012007f036fe07e7013313716423f0
:100a7400d3700ce7002007f02dfe194b1a682300f1
:100a84009633ff339b1a9b46012007f023fedce0dc
:100a9400002007f01ffe104b1b689633ff33104aeb
:100aa40012689b1a9a46012007f014fee0e0002029
:100ab40007f010fe0a4b1a6823009633ff339b1a83
:100ac4009b46012007f006fef5e0c046080d002015
:100ad400781300207013002074130020a811002044
:100ae40064130020b07e0000a61300202012002012
:100af400740b0020090d0020ac0f0020002007f02b
:100b0400e9fda84b1b689633ff33a74a12689b1a6a
:100b14009a46012007f0defde0e03c21ff31a348c6
:100b240005f034fea04b1b68534500d3e9e00020d8
:100b340007f0d0fd9c4b1b68e31a9b46012007f08d
:100b4400c9fd984b1a68984b1b689a4200d8e6e096
:100b5400002007f0bffd934b1b68934a12689b1a51
:100b64009a46012007f0b6fdd34501d28d4b1c6097
:100b74008f4b1a681379ff2b00d0dfe03b689d424e
:100b840000d9e5e0b34200d9e2e043461b889bb2ba
:100b9400002b00d1dce04b461b889bb20a2b04d807
:100ba400844b1b889bb2002b04d1d32189007f483e
:100bb40005f0ecfd7f4b1b889bb2002b16d0002464
:100bc4007d4b9a467b4b9b46012007f083fd00201a
:100bd40007f080fd631c9a0051465258a4006250ed
:100be4009cb25b461b889bb29c42edd3714a13882e
:100bf400013b9bb2138013886f4c9b0000221a5157
:100c0400012007f067fd674b012252421a602468f5
:100c1400002c31d0a246694b9c4202d3684b9c42c3
:100c240004d33c21ff31614805f0b0fd5e4b1b68e5
:100c3400534500d31ee7002007f04cfd5a4b1b68b8
:100c4400e31a9b46012007f045fd564b1a68564ba4
:100c54001b689a4200d81be7002007f03bfd514b6c
:100c64001b68514a12689b1a9a46012007f032fd0c
:100c7400d34501d24b4b1c60524b1c68002c31d025
:100c8400a2464e4b9c4202d34d4b9c4204d33c2182
:100c9400ff31464805f07afd434b1b68534500d3aa
:100ca40005e7002007f016fd3f4b1b68e31a9b463f
:100cb400012007f00ffd3b4b1a683b4b1b689a421f
:100cc40000d81be7002007f005fd364b1b68364aa9
:100cd40012689b1a9a46012007f0fcfcd34501d206
:100ce400304b1c60384b1c68002c00d140e7a246f6
:100cf400324b9c4200d210e7314b9c4200d211e7a8
:100d04000be7002007f0e6fc274b1a682300963314
:100d1400ff339b1a9b46012007f0dcfc11e70020ff
:100d240007f0d8fc1f4b1b689633ff331e4a12682a
:100d34009b1a9a46012007f0cdfc15e70133137185
:100d44006423d3701ae71c4f1a4b9846994615e74b
:100d54001d4c27001d4b9846154b99462368ab4202
:100d64001cd33b68b3421bd843461b889bb2002b61
:100d74000bd002f037fe4b461a681379ff2bedd0e7
:100d8400013313716423d370e8e7002000e0ff20ef
:100d94003cbc90469946a246ab46f8bd0020f7e716
:100da4000020f5e77413002064130020b07e0000d7
:100db40070130020a813002020120020740b0020c0
:100dc400090d0020a8110020ac0f0020aa13002058
:020000040000fa
:100dd400f0b5de4657464e464546e0b5c9b000afcd
:100de40004000e0007f0aefc050007f06dfc8a233a
:100df40008229446bc44634400221a80b3780e321d
:100e04001a4215d133781b09727812011a432378d8
:100e1400617809021943a3781b041943e3781b067c
:100e24000b4319785b781b020b439a4200d091e282
:100e34003379043bdab2152a00d994e29300e44ae8
:100e4400d3589f46b3781b09f0780001184305f086
:100e5400dbfdff207fe27279b3791b02134342d09a
:100e64000020022b00d076e207f078f98a230822ca
:100e7400ba18d518f11d0222280007f0c7fb2b88e9
:100e84009946012b00d187e0d24b1b880022002b0e
:100e940025d0d14dcf4b9a4613019b1a9b009b182a
:100ea400595d8846eb18597809028c4641466046dc
:100eb40001438846997809048c46414660460143bb
:100ec400db781b060b434946891889b21970090a55
:100ed4005970013292b253461b889342dcd81900f0
:100ee400484605f039ff90230822ba18d218823bed
:100ef400137193780f218b4301210b439370b178c5
:100f04000909f3781b010b431b0110880f210140d1
:100f14000b4313806b467b60ae4d2a880132162347
:100f240053430733db08db006a46d31a9d46e84681
:100f340007f010fc0100684607f07cfa2b88002bb0
:100f440072d000250120a44b9b4616239a46a14b40
:100f54009946461cb6b22901491b890049195944ce
:100f640053465843404406f025fa0135adb23000eb
:100f74004b461b88ab42ecd8162373439bb24246c4
:100f8400902108208446bc446144200004f0c0ff42
:100f94007b689d460020dee18a2308229446bc44f7
:100fa4006344063a1a808b4b1b88002b37d00022ef
:100fb400002399468848874b9a4605e0013292b24d
:100fc40053461b8893422ad913019b1a9b009b18f2
:100fd400195c8846c318597809028c46414665460f
:100fe40029438846997809048c4641466546294335
:100ff400db781b060b4319788846597809028c461e
:101004004146654629430129d8d04946023189b26f
:101014001970090a597001239c46e144cee719006e
:10102400012005f099fe5ee70126a5e71623584343
:10103400a84680447379b5792d021d43454407f0d1
:1010440081fbdc239b009c46604485420fd84246ca
:101054003100200003f03afc03000020002b00dce8
:1010640079e106f0c3fa06f0d9fe002073e19a2173
:1010740049005a4805f08afbe9e77279b3791b0203
:101084001343ff20002b00d065e113333b73bb7a7d
:101094000f229343bb72210030310c3a0f23f8180e
:1010a40007f0b4fa03237b730023bb73b2781209ed
:1010b400f3781b0113431b0139890f220a401343a0
:1010c4003b810823f918200006f022fb002042e1ae
:1010d4007279b3791b021343ff20002b00d03ae14d
:1010e40014333b73bb7a0f229343bb720c3a3c49d3
:1010f4000f23f81807f08afa03237b730023bb73ca
:10110400b2781209f3781b0113431b0139890f22aa
:101114000a4013433b810823f918200006f0f8fa2b
:10112400002018e17279b3791b021343ff20002bce
:1011340000d010e111333b73bb7a0f229343bb728f
:101144000c237b730023bb73b2781209f3781b0161
:1011540013431b0139890f220a4013433b81214b5e
:101164001968214b1a68214b1b68f973080a3874f3
:10117400080c7874090eb974fa74110a3975110cd3
:101184007975120eba75fb751a0a3a761a02120e9e
:101194007a761b0ebb760823f918200006f0b8fafd
:1011a4000020d8e07279b3791b0213430020002b8e
:1011b40000d0d0e007f04cfa03000020012b00d946
:1011c400c9e00b4b186803f0b3f80020c3e0c04635
:1011d400a87100009c130020780e0020507e0000af
:1011e40094130020acf7ff1fb0f7ff1fb4f7ff1fe5
:1011f400501300207279b3791b021343ff20002b94
:1012040000d0a8e015333b73bb7a0f229343bb7223
:1012140007237b730023bb73b2781209f3781b0195
:1012240013431b0139890f220a4013433b814f4961
:101234004f4b1a680a609b888b803723e35c8b7161
:1012440007220f23f81807f0e1f90823f918200002
:1012540006f05efa00207ee02500183510220021f9
:10126400280007f005fa7279b3791b021343102b97
:1012740003d9102272710022b271b31d31001631ec
:1012840002e00133994211d05a780a2af9d11a7826
:101294000d2af6d10021200005f096fd2100083129
:1012a4001022280007f0b2f9002054e07379b279d3
:1012b40012021a43f37920218b43413b192be9d8bd
:1012c400002ae7d0f11d280007f0a0f9290020002a
:1012d40005f07afd00203ee07379b27912021a43d8
:1012e400f11d8c250823fb18581907f08ff9b278e3
:1012f4001209f3781b0113432e22a3541b0a013253
:10130400a3541c490823fb185b19186802f0fafe61
:1013140006f02cfe80b22c23e054000a0133e05482
:1013240007f0def92823e054020a0133e2540302f1
:101334001b0e2a22a354000e2b23e05400200ae0a3
:10134400f07907f08df9002005e0300002f092fcfe
:10135400002000e0ff20bd4649b03cbc90469946c1
:10136400a246ab46f0bdff20f5e7c046301300208f
:081374003813002000007a4448
:020000040000fa
:10137c00a81200201c000000000000004c100020ef
:10138c007f000000000000003e130020020000005f
:10139c0000000000cb100020010000000000000045
:1013ac00040000200008000000000000461300208c
:1013bc0002000000000000003713002001000000b4
:1013cc0000000000c4120020040000000000000017
:1013dc000a0d00200200000000000000481300204d
:1013ec0004000000000000004c130020040000006a
:1013fc000100000000a20000aa0f00200200000063
:10140c000100000000080000e012002014000000a1
:10141c000000000050130020040000000000000039
:10142c0030130020070000000000000054130020bf
:10143c0004000000000000009813002002000000cf
:10144c00000000003813002006000000000000001f
:10145c00090d002001000000000000009a1300207c
:10146c000200000000000000f8110020280000001d
:10147c00000000009c13002002000000000000008f
:10148c00780e00203101000000000000f412002052
:10149c001400000000000000941300200300000062
:1014ac0001000000020000009e130020020000005a
:1014bc0000000000a013002002000000000000004b
:1014cc00040800207003000000000000c812002077
:1014dc001800000000000000581300200400000059
:1014ec000000000040130020060000000000000077
:1014fc00a2130020020000000000000008130020ce
:10150c001000000000000000a413002002000000e6
:10151c00000000005c13002004000000000000002c
:10152c0018130020100000000000000060130020c1
:10153c000400000000000000641300200400000000
:10154c0000000000681300200400000000000000f0
:10155c006c1300200400000000000000a811002003
:10156c005000000000000000a61300200200000044
:10157c0000000000a90f0020010000000000000086
:10158c00701300200400000000000000740b002009
:10159c00950100000000000020120020280000002f
:1015ac0000000000a8130020020000000000000052
:1015bc0074130020040000000000000097130020aa
:1015cc000100000000000000ac0f0020a000000093
:1015dc0000000000aa130020020000000000000020
:1015ec00781300200400000000000000b813002055
:1015fc000100000000000000ac13002002000000fd
:10160c0000000000ae1300200200000000000000eb
:10161c00b01300200200000000000000b2130020f4
:10162c000200000000000000b413002002000000c3
:10163c00000000002813002008000000000000003b
:10164c007c1300200400000000000000cc100020df
:10165c007c00000000000000b61300200200000017
:10166c0000000000b9130020010000000000000081
:10167c00801300200400000000000000481200202d
:10168c002000000000000000681200202000000074
:10169c000000000088120020200000000000000064
:1016ac0084130020040000000100000048110020f9
:1016bc004811002060000000010000000000000044
:1016cc006812002088120020481200200000000040
:1016dc0000000000000000000000000000000000fe
:1016ec0000000000000000000000000000000000ee
:1016fc0000000000000000000000000000000000de
:10170c0000000000000000000000000000000000cd
:10171c000000000000000000000000000c0d002084
:10172c006c010000010000004300000000000000fc
:10173c00000000000000000000000000000000009d
:10174c00000000000000000043000000000000004a
:10175c00000000000000000000000000000000007d
:10176c00000000000000000043000000000000002a
:10177c00000000000000000000000000000000005d
:10178c00000000000000000043000000000000000a
:10179c00000000000000000000000000000000003d
:1017ac0000000000000000004300000000000000ea
:1017bc00000000000000000000000000000000001d
:1017cc0000000000000000004300000000000000ca
:1017dc0000000000000000000000000000000000fd
:1017ec0000000000000000004300000000000000aa
:1017fc0000000000000000000000000000000000dd
:10180c0000000000000000007d85000085830000c2
:10181c0000000000145500003587000034870000dc
:10182c0034870000348700003487000034870000c0
:10183c0034870000348700003487000034870000b0
:10184c00ffffffffffffffffffffffffffff00009a
:10185c000100415343494900000000000000000012
:10186c00000000000000000000000000000000006c
:10187c0000004153434949000000000000000000f3
:10188c00000000000000000000000000000000004c
:10189c00000000008813002004000000000000007d
:1018ac008c13002004000000000000000000002049
:1018bc000400000000000000901300200400000051
:1018cc000000000000000000000000002222222284
:020000040000fa
:1018dc0070b5bd4b1b78012b3ad0bc4b1b889bb20f
:1018ec000a2b46d0b94b1b889b00b94a9b58002b3e
:1018fc0003d0b849b84804f045ffb44b1b889bb2e1
:10190c00002b0bd0b24b1b68b44a934202d3b44a9f
:10191c00934203d3b349b04804f034ffab4a138865
:10192c009b00b1490868aa49585013889bb2002bf8
:10193c0000d167e1a54a138801339bb21380ab4bee
:10194c001b689a1ed10700d5abe1a84b1a60abe11e
:10195c00a64b1968a44b1868fef7fefe002803d1ad
:10196c00994b00221a70b8e7a1499b4804f00aff72
:10197c00f6e7964b1b889bb20a2b04d8934b1b881b
:10198c009bb2002b04d1d3218900934804f0fafeba
:10199c008e4b1b889bb2002b12d000248c4d8b4e8f
:1019ac00012006f093fe002006f090fe631c9a00c6
:1019bc005259a40062519cb233889bb29c42efd323
:1019cc00824a1388013b9bb213801388804c9b0086
:1019dc0000221a51012006f079fe864b0122524258
:1019ec001a602468002c2fd025007c4b9c4202d31b
:1019fc007b4b9c4204d33c21ff31774804f0c2fe60
:101a0c00794b1b68ab4200d38de0002006f05efee4
:101a1c00754b1e68a61b012006f058fe754b1a6804
:101a2c00714b1b689a4200d88ae0002006f04efeeb
:101a3c00704b1d686c4b1b68ed1a012006f046febe
:101a4c00ae4201d26b4b1c606b4b1c68002c2dd032
:101a5c002500624b9c4202d3614b9c4204d33c2137
:101a6c00ff315d4804f08efe5f4b1b68ab4275d2b4
:101a7c00002006f02bfe5c4b1e68a61b012006f016
:101a8c0025fe5c4b1a68584b1b689a4273d9002090
:101a9c0006f01cfe574b1d68534b1b68ed1a0120ba
:101aac0006f014feae4201d2524b1c60534b1c6824
:101abc00002c2dd02500494b9c4202d3484b9c4214
:101acc0004d33c21ff31444804f05cfe464b1b68b8
:101adc00ab425ed2002006f0f9fd434b1e68a61bfc
:101aec00012006f0f3fd434b1a683f4b1b689a42ea
:101afc005cd9002006f0eafd3e4b1d683a4b1b6892
:101b0c00ed1a012006f0e2fdae4201d2394b1c6009
:101b1c003b4b1a681379ff2b00d1e3e601331371a9
:101b2c0064231370dee6002006f0d0fd2e4b1b68fc
:101b3c0026009636ff36f61a012006f0c7fd6de733
:101b4c00002006f0c3fd2b4b1d689635ff35264b48
:101b5c001b68ed1a012006f0b9fd71e7002006f0b4
:101b6c00b5fd214b1b6826009636ff36f61a012070
:101b7c0006f0acfd85e7002006f0a8fd1d4b1d68a6
:101b8c009635ff35184b1b68ed1a012006f09efdab
:101b9c0088e7002006f09afd134b1b68260096364a
:101bac00ff36f61a012006f091fd9ce7002006f0a6
:101bbc008dfd104b1d689635ff350b4b1b68ed1ad0
:101bcc00012006f083fd9fe7a90f0020a813002039
:101bdc002012002052020000b07e0000740b002086
:101bec00090d002053020000641300206c13002028
:101bfc003702000074130020a8110020ac0f002045
:101c0c00701300200c68002c00d193e62500314b9a
:101c1c009c4202d3304b9c4204d33c21ff312f48d1
:101c2c0004f0b0fd2e4b1b68ab421fd2002006f017
:101c3c004dfd2b4b1e68a61b012006f047fd294bc2
:101c4c001a68274b1b689a421dd9002006f03efdee
:101c5c00244b1d68224b1b68ed1a012006f036fd43
:101c6c00ae4200d366e61f4b1c6063e6002006f014
:101c7c002dfd1b4b1b6826009636ff36f61a0120ed
:101c8c0006f024fddbe7002006f020fd154b1d6857
:101c9c009635ff35124b1b68ed1a012006f016fd28
:101cac00dee7013b104a13600f4b1b6809330f4ae8
:101cbc0093420ad80c4b1b68094a136009330c4a2f
:101ccc0013600c4b01221a7070bd074b014a1a604d
:101cdc00f0e7c046740b0020090d0020b07e000018
:101cec0064130020741300206c130020080d0020d6
:081cfc0068130020a90f00206d
:020000040000fa
:101d0400f8b5ce46474680b507008846bb4b1b88ce
:101d14009bb20a2b30d0002006f0dcfcb74b1b88aa
:101d24009bb2092b00d963e1b44a1188b44bc900b2
:101d34004046c8501188c9005b185f6013889bb285
:101d4400002b00d170e1ad4c238801339bb223807a
:101d5400012006f0bffc2088642358430a2103f0c5
:101d6400c3fac0b2a74b1b685a78824200d258709b
:101d74000cbc90469946f8bda04b1b889bb2002b27
:101d840004d09e4b1b889bb20a2b04d9e7218900ff
:101d94009d4804f0fbfc994b1b889bb2002b16d08a
:101da4000024974e954b9946002006f093fc651c41
:101db400e300ea00f318b21803ca03c3012006f0d3
:101dc40089fcacb24b461b889bb29c42ecd30020ee
:101dd40006f080fc894b1b889bb2002b0dd0874af0
:101de4001388013b9bb213801188854bc9000020e6
:101df400c8501288d2009b185860012006f06afc73
:101e0400824b012252421a60814b1c68002c2fd055
:101e14002500804b9c4202d37f4b9c4204d33c213f
:101e2400ff31794804f0b2fc7c4b1b68ab4200d311
:101e34008de0002006f04efc784b1e68a61b0120a6
:101e440006f048fc714b1a68744b1b689a4200d820
:101e54008ae0002006f03efc6c4b1d686f4b1b684b
:101e6400ed1a012006f036fcae4201d2674b1c602d
:101e7400634b1c68002c2dd02500664b9c4202d37a
:101e8400654b9c4204d33c21ff315f4804f07efc47
:101e9400624b1b68ab4275d2002006f01bfc5f4b03
:101ea4001e68a61b012006f015fc584b1a685b4bf4
:101eb4001b689a4273d9002006f00cfc534b1d6832
:101ec400564b1b68ed1a012006f004fcae4201d209
:101ed4004e4b1c60524b1c68002c2dd025004d4be2
:101ee4009c4202d34c4b9c4204d33c21ff314648d4
:101ef40004f04cfc494b1b68ab425ed2002006f058
:101f0400e9fb464b1e68a61b012006f0e3fb3f4b92
:101f14001a68424b1b689a425cd9002006f0dafb2f
:101f24003a4b1d683d4b1b68ed1a012006f0d2fbad
:101f3400ae4201d2354b1c60324b1a681379ff2b29
:101f440000d1e8e60133137164235370e3e6002003
:101f540006f0c0fb314b1b6826009636ff36f61a96
:101f6400012006f0b7fb6de7002006f0b3fb274b1a
:101f74001d689635ff35294b1b68ed1a012006f0c4
:101f8400a9fb71e7002006f0a5fb244b1b68260083
:101f94009636ff36f61a012006f09cfb85e70020f2
:101fa40006f098fb194b1d689635ff351b4b1b68d3
:101fb400ed1a012006f08efb88e7002006f08afb6c
:101fc400164b1b6826009636ff36f61a012006f0db
:101fd40081fb9ce7002006f07dfb0c4b1d689635c9
:101fe400ff350e4b1b68ed1a012006f073fb9fe7cb
:101ff4000c49054804f0cafb96e6c046a613002027
:10200400a811002070130020b07e0000741300207b
:1020140020120020740b0020090d002064130020fe
:10202400ac0f0020d6030000274b1c68002c00d105
:1020340089e62500254b9c4202d3254b9c4204d3c0
:102044003c21ff31234804f0a1fb234b1b68ab4226
:102054001fd2002006f03efb1f4b1e68a61b01206a
:1020640006f038fb1d4b1a681b4b1b689a421dd99e
:10207400002006f02ffb194b1d68174b1b68ed1a47
:10208400012006f027fbae4200d35ce6134b1c6034
:1020940059e6002006f01efb0f4b1b6826009636ff
:1020a400ff36f61a012006f015fbdbe7002006f0e8
:1020b40011fb0a4b1d689635ff35074b1b68ed1a5b
:1020c400012006f007fbdee7a8110020740b0020b6
:1020d400090d0020b07e000064130020741300205a
:020000040000fa
:1020e400f0b59db00390029104921c00002805d025
:1020f40083690593002b01d104f002ff984b029ae7
:102104009a4262d1039b5b680293029b9b891b07e3
:1021140069d5029b1b690593002b64d000220aab8e
:102124000f9220325a7610329a76049f3b78002b15
:1021340001d0252b61d1049bfd1a0cd02b00049aed
:102144000299039805f050fb431c00d17de10f9bdd
:102154005d1904930f953b78002b00d175e10122a2
:1021640000230aad52426a6006a9543252180a93f7
:10217400eb60ab6013707b4b0137223304933978e7
:102184000522049806f004fa7e1c002837d12a6838
:10219400d30604d5532306a95b182021197013070d
:1021a40004d5532306a95b182b2119703b782a2bdd
:1021b4002ed03e0000210a20eb683278771c303a9a
:1021c400092a67d9002926d12ce0674b029a9a4242
:1021d40002d1039b9b6897e7644b029a9a4294d17d
:1021e400039bdb6890e70299039803f0fdfb00284a
:1021f40094d0012040421db0f0bd013796e7049b06
:102204002a68c01a0123834013432b603700b6e7c2
:1022140008cc002b01dbeb6004e05b42eb600223a3
:1022240013432b6033782e2b07d173782a2b39d1a3
:1022340008cc0236002b32db6b604a4f31782837ea
:102244000322380006f0a4f9002806d04023c01b5e
:1022540083402a68013613432b60424f731c3800b5
:102264003178532606222c300493297606f090f90f
:102274002b7e06aab618692b2bd038d8582b77d0ca
:1022840023d8002b00d1ede0522606aab6183370ed
:102294000123f5e0434301219b183e008de7012310
:1022a4005b42c9e700230a201a0001366b603178cb
:1022b400771c3039092903d9002bbed06a60bce7ea
:1022c4004243012352183e00f1e7632b27d0642bcd
:1022d400dad1221d0a9b059224681a062cd5214fb7
:1022e400002c02da2d23644233700a255ce0732b40
:1022f40000d1b9e008d86f2b22d0702bc4d1202391
:102304002a6813432b6003e0752b19d0782bbbd1bb
:10231400552306aa9b18782211371a702ce05226ee
:1023240006abf61808cc337001232b61532306aa9d
:102334009b1800221a706be05b06d0d524b2cee75e
:10234400211d0a9a05912468110605d5054f0a2511
:102354006f2b24d1082522e05206f7d5a4b2f5e765
:1023640068120020b87d0000881200204812002066
:10237400552206a952181370221d0a9b059224683f
:102384001a0669d50122134202d01f3213430a935d
:102394001025002c03d120230a9a9a430a9253232e
:1023a40006aa9b1800221a700b9b0c93002b03dbcc
:1023b40004220a9991430a91002c05d1532206a9bb
:1023c40052181600002b0cd0532306aa9b181e008b
:1023d4002900200003f00ef87b5c013e3370a54217
:1023e4003ed9082d0ed101220a9b13420ad00b9b21
:1023f40006930e9b0793079a069b934202dc3023b5
:10240400013e3370532306aa9b189b1b059c0e9315
:10241400294b09aa00930aa9029b039803f042fce2
:10242400431c12d00e9b32000299039805f0dcf98c
:10243400431c0ad00a9b05939b0735d4099a0d9b2c
:10244400934200da13005a1c30d1029b9b895b062d
:1024540000d5cee60f98cee65a0693d5a4b291e7fe
:102464000400b5e72b61d3e740cc6a680021300053
:1024740006f08ef8002801d0801b68600b9b059342
:102484000e9353e7292206a90123521803980299af
:1024940005f0aaf9431cd8d001350d9b099a059380
:1024a4009b1a9d42eedbc9e70025f6e70f9ad31885
:0c24b40005920f9339e6c046ed7700005a
:020000040000fa
:1024c000f0b5d6464f464646c0b5a6b00023259384
:1024d000249306f007f9d44b1b68c01ad34b5b79e1
:1024e00098420bd805f02efb00280fd002f034f8ec
:1024f0000024cf4b9a46cf4b994681e006f0f2f884
:10250000c94b1b68c01ac94b5871ebe70022002168
:1025100002f0def9eae700229fe00027a3e00027af
:10252000a1e0be21c44804f033f90fe038797b798b
:102530001b020343b87900040343f87900061843eb
:10254000434258414042c0b2002829d03b797a79b1
:1025500012021a43bb791b041a43fb791b0613436f
:102560004cd024a9200000f01bfb002848d13b7967
:102570007a7912021a43bb791b041a43fb791b06b2
:1025800013432499380098473ae0501e8241504244
:10259000c0b2d9e7013a501e82415042c0b2d3e7df
:1025a00024a9200000f0fcfa002829d12499380041
:1025b000fef710fc002818d03b797a7912021a43f2
:1025c000bb791b041a43fb791b06134311d03b79db
:1025d0007a7912021a43bb791b041a43fb791b0652
:1025e00013432499380098470ae0249800f042ffea
:1025f00006e09121904804f0cbf8e8e70134a4b25a
:1026000025a9200004f03af8ff284ad0259f534618
:102610001888002883d0874b1b689f4200d17ae737
:1026200001218bb2984200d877e70a0001311301eb
:102630009b1a9b009b184d465e5db0464b445e78ee
:102640003602b446464665462e439d782d042e43f9
:10265000db781b0633439f42e3d11701bf1abf004b
:10266000bf18744bff186b46d91d00230b7002aacc
:102670001380200005f0c4fd002812d102a920001b
:1026800005f0d4fc00280cd102ab1a886b46db792c
:10269000192b00d95ae76b46db799b006749cb5869
:1026a0009f4606f02bf8624b1b88002b00d1c7e039
:1026b0000025604e13e02b015b1b9b005b195d4afc
:1026c000944663442c331a785b781b02134330d151
:1026d0000135adb2564b1b88ab4200d8b0e02f009d
:1026e0002b015b1b9b005b19995df3185a78120252
:1026f00011439a7812040a43db781b0613431a78b5
:102700005b781b021343d6d12b015b1b9b005a192c
:10271000484b9b181a002e32002111705170023a5a
:1027200011705170283300221a705a709a70da7042
:10273000cee705f0d7ff2b015b1b9b005b193d4ae1
:10274000944663441c0028342278617809021143be
:10275000a27812041143e27812060a43801a2c333d
:1027600019785b781b020b439842b1d302a96246e9
:102770002801401b80004019835c9c461018437858
:102780001b0262461343827812041343c278120676
:102790001a4313789c4653781b02624613431b016d
:1027a0000a8894460f226446144023430b8003009a
:1027b0002e331c785b781b0223431b014c8822407c
:1027c00013434b80f0221340012213438b702a23c2
:1027d0000b711d3b6b4400221a705a7003794279c9
:1027e00012021a4383791b041a43c3791b0613434d
:1027f00007d02801401b800040190e4a801802a90a
:10280000984705f06fff3b01db1b9b00db19094f6d
:10281000ff1828373870030a7b7003021b0ebb7049
:10282000000ef87054e7c0465413002038130020ff
:102830009c130020780e0020507e0000346e0000b3
:1028400005f050ff034b186026b01cbc904699461b
:08285000a246f0bd5413002064
:020000040000fa
:10285800f8b543025b0ada00de4693464a02520a9a
:10286800454690464e4657464446e0b54a0047001e
:102878003f0ee400120ea1469c463e00c50fc90f4c
:10288800bc1aff2a00d177e0012082465046414019
:102898008d4200d180e0002c51dd002a00d073e089
:1028a8004b46002b00d1dde0013c002c0fd0ff2f60
:1028b80000d1a5e001231b2c09dc20224946121b6c
:1028c80091404b460a00e340511e8a4113435a4641
:1028d800d31a5a0100d4c0e09b019c09200005f0de
:1028e80069f9230005388340864200ddc4e0861b71
:1028f8001a0020200136f240861bb3405c1ea3411b
:10290800002613435a0704d00f221a40042a00d085
:1029180004335a0100d4a3e00136f7b2ff2e00d1e8
:10292800a7e09b015b0a5802ff05400aed07384300
:1029380028433cbc90469946a246ab46f8bd002cbd
:102948004fd1fe247a1c144200d099e05a46002f39
:1029580000d000e1002a00d1f1e04a46002ae2d086
:102968004b465a46d31a5a0100d402e14b465a46fe
:102978000d009b1a0026c5e74846002800d183e7ca
:102988008d4251d0002cdaddff2f39d080234a4602
:10299800db041a4391468de7002c45dd002a3ad026
:1029a800ff2f2dd080234a46db041a43914601238a
:1029b8001b2c09dc20224946121b91404b460a0079
:1029c800e340511e8a4113435b445a0145d5013601
:1029d800ff2e4ed001226e491a405b080b4013436c
:1029e80090e7d41b0d00002f6fd15b46002b00d160
:1029f8008fe0013c002c00d1c2e0ff2a6cd1c44614
:102a08006346002b35d080236246db0313435b0209
:102a18005b0aff2787e74b46002b23d0013c002c9d
:102a280074d0ff2fc3d1ebe7002c35d1fe227e1cda
:102a3800324200d089e05a46002f6dd1002a00d1d9
:102a4800a3e04a46002a00d16de75b464b440026c6
:102a58005a0102d54f4a013613405a0700d053e7ae
:102a6800db089c46ff2ecbd063465b025b0af7b2bd
:102a780059e7ff27002356e7464a361a134041e72d
:102a88004b465a46d41a63016fd4002c00d025e770
:102a980000250027002346e7d11b002f2cd0ff2a52
:102aa800add080235846db041843834601231b29f5
:102ab80008dc5b4620245846cb40611a8840411efa
:102ac800884103434b4416007fe7ff2a97d08023b1
:102ad8005946db0419438b4601231b2c08dc2021b3
:102ae8005b465846e3400c1ba040411e8841034307
:102af80049461600cb1aece65b46002b09d0013993
:102b08000029dfd0ff2ad1d1c44679e75b464b4480
:102b18005be7c4461600a5e7002a00d16fe74a46de
:102b2800002a00d16ce78022d203134200d167e764
:102b38004346134200d063e70d00c44660e74b46a6
:102b4800002b1ad00d004346ede6ff2e91d05b46d0
:102b58004b445b0881e7002ae1d14b46002bebd1bf
:102b680080230025db03ff27dde64b460d009c1a7a
:102b7800b4e60026002b00d06fe700250023d2e63c
:102b88004b46594616005b1aa3e64346cbe6c046b9
:082b9800ffffff7dfffffffbc3
:020000040000fa
:102ba000f8b504000d00b34b1968002906d00722c0
:102bb000b14805f02dfdaf4b00221a60002005f052
:102bc0008bfdae4b1b78012b09d0012005f084fd55
:102bd000ab4b1b889bb2ff20a34210d8f8bda74b7c
:102be00000221a70a74b1968a74b1868fdf7bafda9
:102bf0000028ead0f721a54803f0cafde5e7e30085
:102c0000a34a9b58a34a13602b609d4b1b889bb221
:102c10009c4204d29a4b1b889bb20a2b04d9e72111
:102c200089009a4803f0b4fd954b1b889bb2a342e0
:102c300013d9974d924e002005f04efd671ce4001d
:102c4000fb002c19eb1806cb06c4012005f044fd4f
:102c5000bcb233889bb29c42edd3002005f03cfd12
:102c6000874b1b889bb2002b0dd0854a1388013bf4
:102c70009bb213801188864bc9000020c85012886f
:102c8000d2009b185860012005f026fd824b0122de
:102c900052421a60814b1c68002c2fd02500764bc5
:102ca0009c4202d37e4b9c4204d33c21ff317748a7
:102cb00003f06efd744b1b68ab4200d386e000202e
:102cc00005f00afd704b1e68a61b012005f004fdef
:102cd000714b1a686c4b1b689a4200d883e0002045
:102ce00005f0fafc6c4b1d68674b1b68ed1a012060
:102cf00005f0f2fcae4201d2674b1c60644b1c68cd
:102d0000002c2dd025005c4b9c4202d3644b9c428e
:102d100004d33c21ff315d4803f03afd5a4b1b6858
:102d2000ab426ed2002005f0d7fc574b1e68a61ba5
:102d3000012005f0d1fc584b1a68534b1b689a428e
:102d40006cd9002005f0c8fc534b1d684e4b1b6826
:102d5000ed1a012005f0c0fcae4201d24e4b1c60c2
:102d6000504b1c68002c00d181e02500424b9c4256
:102d700002d34b4b9c4204d33c21ff31434803f028
:102d800007fd414b1b68ab4256d2002005f0a4fc66
:102d90003d4b1e68a61b012005f09efc3e4b1a68a9
:102da000394b1b689a4254d9002005f095fc3a4be8
:102db0001d68354b1b68ed1a012005f08dfc0020c5
:102dc000ae4200d30ae7344b1c6007e7002005f051
:102dd00083fc2d4b1b6826009636ff36f61a012021
:102de00005f07afc74e7002005f076fc2a4b1d689c
:102df0009635ff35244b1b68ed1a012005f06cfc5d
:102e000078e7002005f068fc1f4b1b68260096360b
:102e1000ff36f61a012005f05ffc8ce7002005f074
:102e20005bfc1d4b1d689635ff35174b1b68ed1a73
:102e3000012005f051fc8fe7002005f04dfc124bfe
:102e40001b6826009636ff36f61a012005f044fc72
:102e5000a4e7002005f040fc0f4b1d689635ff35b8
:102e6000094b1b68ed1a012005f036fca7e700208e
:102e7000b4e6c04660130020740b0020a90f0020a8
:102e8000a61300206813002064130020b07e000009
:102e9000a8110020781300207413002020120020b5
:082ea000090d0020ac0f002019
:020000040000fa
:102ea800f8b50400ad4b1968002906d00722ac48d4
:102eb80005f0aafba94b00221a60002005f008fcc7
:102ec800a84b1b78012b09d0012005f001fca64b6b
:102ed8001b889bb2ff20002b10d1f8bda14b00220c
:102ee8001a70a24b1968a24b1868fdf737fc002826
:102ef800ead0f7219f4803f047fce5e79e4b1b68a3
:102f08002360974dab4202d39c4a934203d39c491a
:102f1800984803f039fc944b1b889bb20a2b04d8c1
:102f2800914b1b889bb2002b04d1d3218900914877
:102f380003f02afc8c4b1b889bb2002b12d0002478
:102f48008d4e894f012005f0c3fb002005f0c0fb22
:102f5800631c9a009259a400a2519cb23b889bb270
:102f68009c42efd3804a1388013b9bb2138013889d
:102f7800814c9b0000221a51012005f0a9fb814bce
:102f8800012252421a602468002c2ed02600a54245
:102f980002d87a4b9c4204d33c21ff31754803f098
:102fa800f3fb734b1b68b34200d384e0002005f0a9
:102fb8008ffb6f4b1f68e71b012005f089fb714be6
:102fc8001a686b4b1b689a4200d881e0002005f014
:102fd8007ffb6c4b1e68664b1b68f61a012005f0d8
:102fe80077fbb74201d2674b1c60674b1c68002c0b
:102ff8002cd02600a54202d8604b9c4204d33c2129
:10300800ff315c4803f0c0fb594b1b68b3426dd2db
:10301800002005f05dfb564b1f68e71b012005f0fb
:1030280057fb584b1a68524b1b689a426bd90020c1
:1030380005f04efb534b1e684d4b1b68f61a0120da
:1030480005f046fbb74201d24e4b1c604f4b1c6843
:10305800002c00d180e02600a54202d8474b9c42b4
:1030680004d33c21ff31434803f08efb404b1b68df
:10307800b34256d2002005f02bfb3d4b1e68a61b21
:10308800012005f025fb3f4b1a68394b1b689a4213
:1030980054d9002005f01cfb3a4b1d68344b1b68c3
:1030a800ed1a012005f014fb0020ae4200d314e70e
:1030b800344b1c6011e7002005f00afb2c4b1b6801
:1030c80027009637ff37ff1a012005f001fb76e746
:1030d800002005f0fdfa2b4b1e689636ff36244b70
:1030e8001b68f61a012005f0f3fa7ae7002005f0cc
:1030f800effa1f4b1b6827009637ff37ff1a01208e
:1031080005f0e6fa8de7002005f0e2fa1d4b1e688f
:103118009636ff36164b1b68f61a012005f0d8faca
:1031280090e7002005f0d4fa114b1b68260096366c
:10313800ff36f61a012005f0cbfaa4e7002005f0c7
:10314800c7fa104b1d689635ff35094b1b68ed1af9
:10315800012005f0bdfaa7e70020bee660130020b5
:10316800740b0020a90f0020a8130020681300206a
:1031780064130020b07e000020120020090d0020fa
:103188008103000074130020a8110020ac0f002058
:020000040000fa
:10319800f8b5de4657464e464546e0b58346a94b48
:1031a8001b889bb2002b04d0a64b1b889bb20a2b12
:1031b80003d9a549a54803f0e7fa0025a14b99468c
:1031c800a34b9a4637e09f4b1b889bb2984219d273
:1031d8002c009f4e9b4b9846002005f079fa671cff
:1031e8003b019a592401a251f3189b889bb23419c8
:1031f800a380012005f06cfafcb243461b889bb201
:10320800a342e9d8002005f063fa8e4b1b889bb2d5
:10321800002b0dd08b4a1388013b9bb21380118879
:103228008b4b09010020c850128812019b18988006
:10323800012005f04dfaa8b24b461b889bb2984274
:103248000cd22b01524699580a7812094b781b0167
:1032580013435b45b7d00135edb2ece77d4b012256
:1032680052421a607c4b1c68002c2fd025007b4be7
:103278009c4202d37a4b9c4204d33c21ff317348d1
:1032880003f082fa774b1b68ab4200d389e0002039
:1032980005f01efa734b1e68a61b012005f018faec
:1032a8006c4b1a686f4b1b689a4200d886e0002066
:1032b80005f00efa674b1d686a4b1b68ed1a012072
:1032c80005f006faae4201d2624b1c60664b1c68e0
:1032d800002c2ed02500614b9c4202d3604b9c42af
:1032e80004d33c21ff31594803f04efa5d4b1b686b
:1032f800ab4200d370e0002005f0eaf9594b1e6894
:10330800a61b012005f0e4f9524b1a68554b1b68bf
:103318009a426ed9002005f0dbf94e4b1d68514bdf
:103328001b68ed1a012005f0d3f9ae4201d2494bd2
:103338001c60474b1c68002c2dd02500474b9c4235
:1033480002d3474b9c4204d33c21ff313f4803f052
:103358001bfa444b1b68ab4259d2002005f0b8f960
:10336800404b1e68a61b012005f0b2f9394b1a68bc
:103378003c4b1b689a4257d9002005f0a9f9354bf8
:103388001d68384b1b68ed1a012005f0a1f9ae4203
:1033980001d2304b1c603cbc90469946a246ab46d5
:1033a800f8bd002005f094f92e4b1b6826009636d0
:1033b800ff36f61a012005f08bf971e7002005f0b9
:1033c80087f9244b1d689635ff35264b1b68ed1a87
:1033d800012005f07df975e7002005f079f9214b0a
:1033e8001b6826009636ff36f61a012005f070f99c
:1033f8008ae7002005f06cf9164b1d689635ff35f5
:10340800184b1b68ed1a012005f062f98de70020c2
:1034180005f05ef9134b1b6826009636ff36f61a40
:10342800012005f055f9a1e7002005f051f9094bf5
:103438001d689635ff350b4b1b68ed1a012005f00a
:1034480047f9a4e7aa130020e2060000b07e0000b6
:10345800ac0f00207413002020120020740b0020f1
:0c346800090d002064130020a8110020b2
:020000040000fa
:10347400f8b5de4657464e464546e0b5824600243a
:10348400a54b9846a54b994643461b889bb2a3423d
:1034940000d83be1e3004a469b58534502d001342f
:1034a400a4b2f1e79c4b1b889bb29c4204d29a4b7a
:1034b4001b889bb20a2b04d9e7218900984803f0a2
:1034c40065f9954b1b889bb29c4216d22700934efc
:1034d400914b9b46002005f0fdf87d1cfb00ea00a3
:1034e400f318b21803ca03c3012005f0f3f8afb20e
:1034f4005b461b889bb29f42ecd3002005f0eaf8a0
:10350400854b1b889bb2002b0dd0834a1388013b4b
:103514009bb213801188814bc9000020c8501288c7
:10352400d2009b185860012005f0d4f87d4b01228d
:1035340052421a607c4b1d68002d2fd02e007b4b0d
:103544009d4202d37a4b9d4204d33c21ff317448ff
:1035540003f01cf9774b1b68b34200d385e00020cd
:1035640005f0b8f8734b1f68ef1b012005f0b2f8a3
:103574006c4b1a686f4b1b689a4200d882e000209b
:1035840005f0a8f8674b1e686a4b1b68f61a012001
:1035940005f0a0f8b74201d2624b1d605f4b1d6875
:1035a400002d2dd02e00614b9d4202d3604b9d42d5
:1035b40004d33c21ff315a4803f0e8f85d4b1b6803
:1035c400b3426dd2002005f085f85a4b1f68ef1bfb
:1035d400012005f07ff8534b1a68564b1b689a423a
:1035e4006bd9002005f076f84e4b1e68514b1b68d2
:1035f400f61a012005f06ef8b74201d2494b1d605e
:103604004d4b1d68002d00d13ee72e00474b9d42d7
:1036140002d3474b9d4204d33c21ff31404803f081
:10362400b5f8444b1b68b34255d2002005f052f85c
:10363400404b1f68ef1b012005f04cf8394b1a680a
:103644003c4b1b689a4253d9002005f043f8354b94
:103654001e68384b1b68f61a012005f03bf8b74288
:1036640000d311e72f4b1d600ee7002005f032f860
:10367400304b1b682f009637ff37ff1a012005f0e7
:1036840029f875e7002005f025f8264b1e689636c4
:10369400ff36284b1b68f61a012005f01bf879e762
:1036a400002005f017f8234b1b682f009637ff37cf
:1036b400ff1a012005f00ef88de7002005f00af846
:1036c400184b1e689636ff361a4b1b68f61a0120f3
:1036d40005f000f890e7002004f0fcff154b1b6890
:1036e4002f009637ff37ff1a012004f0f3ffa5e7f8
:1036f400002004f0efff0b4b1e689636ff360d4b8f
:103704001b68f61a012004f0e5ffa8e73cbc9046cc
:103714009946a246ab46f8bda6130020a811002086
:10372400b07e00007413002020120020740b0020cf
:0c373400090d002064130020ac0f0020e1
:020000040000fa
:10374000f8b5ce46474680b5050083781b071b0faa
:10375000dab2062a26d89b00a04ad3589f46a04a30
:103760006423d35a9bb20026002b00d1cde09146b2
:1037700090466427b9e09a4a6423d35a9bb2002446
:10378000002b0fd016006427e000001b40001e3005
:1037900080192900fef7b6fa0134a4b2f35b9bb29c
:1037a000a342f1d80cbc90469946f8bd8c4a6423dc
:1037b000d35a9bb20024002b6cd01700160051e0a6
:1037c000874a6423d35a9bb2002b24d0d38b9bb25d
:1037d000027812094178090111438b4239d0002344
:1037e0007f4e6424370001339bb2325b92b29a421f
:1037f00011d91800da00d21a5200ba18d28b92b23c
:103800008a42f0d1c300181a40001e30744bc01811
:103810002900fef777fa724a7423d35c002bc1d1da
:103820007633d25a92b2297809096b781b010b437f
:103830009a42b7d06a4a7623d35ad08b181a80b2ec
:10384000c300181a40001e3080182900fef75afaeb
:10385000a8e70020d6e70134a4b26423f35a9bb250
:10386000a34217d9e3001b1b5b00fb181a8c92b212
:10387000297809096b781b010b439342ebd1e000d7
:10388000001b40001e30564b9c4660442900fef74a
:1038900039fae0e7524a7423d35c002b00d081e769
:1038a0007633d25a92b2297809096b781b010b43ff
:1038b0009a4200d176e74a4a7623d35ad08b181a17
:1038c00080b2c300181a40001e3080182900fef78d
:1038d00019fa67e729002000fef714fa0136b6b29c
:1038e0004346db5b9bb2b3420fd9f400a41b6400d8
:1038f0001e344c442b781b096978090119432000b8
:1039000004f01efb0028e9d0e4e7354a7423d35cb9
:10391000002b00d046e77633d25a92b229780909b3
:103920006b781b010b439a4200d13be72c4a76236c
:10393000d35ad08b181a80b2c300181a40001e3018
:1039400080182900fef7def92ce702781209437887
:103950001b01134325d0224a12881205120d9342ef
:1039600024d01f4a7423d35c002b00d01ae776338f
:10397000d25a92b2297809096b781b010b439a42fb
:1039800000d10fe716497623ca5ac88b121a92b291
:10399000d000801a40001e3040182900fef7b2f90e
:1039a00000e701000f48fef7adf9fbe60c4a64237f
:1039b000d35a9bb2002bd4d0002416006427e00019
:1039c000001b40001e3080192900fef79bf90134ce
:1039d000a4b2f35b9bb2a342f1d8c2e7c884000053
:0839e000cc100020ea100020c9
:020000040000fa
:1039e800f8b5994b1b889bb2002b04d0964b1b88cb
:1039f8009bb20a2b03d99549954802f0c5fe924b14
:103a08001b889bb2002b17d00024924d8e4f0020ac
:103a180004f05efe661c33015a5924016251eb180a
:103a28009b889bb22c19a380012004f051fe3b888f
:103a38009bb234009e42eadb002004f049fe824b30
:103a48001b889bb2002b0dd07f4a1388013b9bb289
:103a5800138011887f4b09010020c8501288120179
:103a68009b189880012004f033fe7b4b01225242c0
:103a78001a607a4b1c68002c2fd02500784b9c428a
:103a880002d3784b9c4204d33c21ff31704802f0aa
:103a98007bfe754b1b68ab4200d384e0002004f02a
:103aa80017fe714b1e68a61b012004f011fe6a4b1d
:103ab8001a686d4b1b689a4200d881e0002004f018
:103ac80007fe654b1d68684b1b68ed1a012004f062
:103ad800fffdae4201d2604b1c60644b1c68002c99
:103ae8002ed025005e4b9c4202d35e4b9c4204d3f1
:103af8003c21ff31564802f047fe5b4b1b68ab4246
:103b080000d36be0002004f0e3fd574b1e68a61bb2
:103b1800012004f0ddfd504b1a68534b1b689a4294
:103b280069d9002004f0d4fd4b4b1d684e4b1b682f
:103b3800ed1a012004f0ccfdae4201d2464b1c60c8
:103b4800444b1c68002c2dd02500454b9c4202d3c9
:103b5800444b9c4204d33c21ff313d4802f014fe03
:103b6800414b1b68ab4254d2002004f0b1fd3e4be0
:103b78001e68a61b012004f0abfd374b1a683a4bb0
:103b88001b689a4252d9002004f0a2fd324b1d68ee
:103b9800354b1b68ed1a012004f09afdae4201d2a4
:103ba8002d4b1c60f8bd002004f092fd2e4b1b68c5
:103bb80026009636ff36f61a012004f089fd76e7ce
:103bc800002004f085fd244b1d689635ff35264bf3
:103bd8001b68ed1a012004f07bfd7ae7002004f051
:103be80077fd214b1b6826009636ff36f61a012012
:103bf80004f06efd8fe7002004f06afd164b1d6887
:103c08009635ff35184b1b68ed1a012004f060fd4e
:103c180092e7002004f05cfd134b1b6826009636e3
:103c2800ff36f61a012004f053fda6e7002004f041
:103c38004ffd094b1d689635ff350b4b1b68ed1a78
:103c4800012004f045fda9e7aa130020a7060000fb
:103c5800b07e0000ac0f002074130020201200205a
:103c6800740b0020090d002064130020a811002007
:020000040000fa
:103c7800f0b5d6464f464646c0b5a2b0c379082b24
:103c880032d89b007e4ad3589f4682781209c3785f
:103c98001b0113437b4a13804379827912021a432a
:103ca800013a92b2784b1a80784c01000831200012
:103cb80004f0aafc2368764a1360764a934203d834
:103cc800102003f0fffc0fe0202003f0fbfc0be0ca
:103cd8006f4b1988a220000204f050f86e4b0022a6
:103ce8001a70122003f0eefc22b01cbc90469946d4
:103cf800a246f0bd82781209c3781b011343614aba
:103d080013804379847924021c43013ca4b25e4b9e
:103d18001c800100083122005c4804f075fc5f4bf0
:103d28001d88ac4210d85e4f3e885e48301822008d
:103d3800564904f069fca6193e802c1b574b1c8081
:103d4800132003f0bffccfe7554b98461888554e13
:103d580080194e4f2a00390004f056fc80252d01a9
:103d6800514c32002900206803f02ef923682a00fc
:103d7800ac4663442360ff21300004f077fc474dd4
:103d88002c88414b1b8899461b1b9a46e1191a003f
:103d9800300004f039fc434652461a8080231b0148
:103da8009c4664444b46e41a2c80c9e78278120981
:103db800c3781b011343334a138043798279120273
:103dc8001a43013a92b2304b1a80010008312f4849
:103dd80004f01afc8021344b1868324a090103f0b8
:103de800f3f8142003f06efc7ee702f0cdfd2f4bb4
:103df800187017236a46137193780f229343012290
:103e080013436a4693701f4b1a8812016b46198830
:103e18000f230b4013436a4613806b4602225a71e4
:103e280000229a7115236a46d371107269460020e0
:103e380003f06cfc58e7184b01221a7054e704f0a1
:103e48004dfc1b4b18601d001a4c04f047fc2b68f6
:103e5800c01aa042f9d9104b1b78002b03d104f0eb
:103e680073fc022806d104f09cfba220000204f097
:103e78009bf939e7002003f0ffff04f081f933e7ed
:103e88003c8300000a0d00203e1300204c10002047
:103e9800c4120020fe5d030037130020aa0f002083
:103ea80046130020040000204c130020cb100020f3
:083eb80048130020e70300009d
:020000040000fa
:103ec000f0b583b004000078c0b204f06ffb854bfe
:103ed0001a88854b1b889a4241d344d9834a10687b
:103ee000c218d2790133c318dc7924021443804b01
:103ef0001b88a34200d0b4e004f006fc002838d1af
:103f00007a4b1a6893781b071b0f012b59d09378b3
:103f10001b071b0f062b00d172e0744b1b681a792c
:103f2000162a00d17be0714b1b681b79012b00d155
:103f30007fe0704b1b88a34204d16f4b1b88002b82
:103f400000d084e0fdf7cafc6b4b1b88002b00d12e
:103f500083e0013b684a1380664b1c8092e0644911
:103f6000200004f035f85f4a13880133138003b052
:103f7000f0bd5e4b1d686979ab791b0219430139ad
:103f800069180822684604f043fb5c4b1a685b68ba
:103f9000009e019f9f4211d801d196420ed8921bdc
:103fa000bb4156490a604b606879ab791b021843e4
:103fb00001382818082204f02bfba1e70022002377
:103fc000efe71178090953781b010b434c4868212e
:103fd000415ac9008b4200dc99e701006820085a69
:103fe000c0001b1a013b9bb2d8080918663109783a
:103ff000c9b2072003401941cb0700d487e70be083
:104000003f4b19880905090d1078000953781b01e9
:104010000343994200d080e704f064fa7de7db793e
:10402000092b00d07fe7002003f02aff04f0acf852
:1040300079e704f0d1f8324b00221a76032003f01e
:1040400061fc002004f00efb04f0c4fa1ae002f058
:1040500021fc2b4b2b4a9a6089e7264b00221a80c1
:1040600010e0274a137b10210b43137383781b073f
:104070001b0f012b0ad083781b071b0f062b22d0a6
:1040800002f008fc1e4b1f4a9a6070e70278120982
:1040900043781b0113431a4968228a5ad20093427b
:1040a000e9dd0a006821515ac9005b1a013b9bb245
:1040b000d908521866321278d2b207210b401a4141
:1040c000d307d8d50ae00e4b1a881205120d0178d5
:1040d000090943781b010b439a42d1d104f002fa3b
:1040e000cee7c046ae130020b013002064130020ba
:1040f000ac130020b4130020b213002028130020ba
:08410000cc100020175600004e
:020000040000fa
:10410800f0b54f464646d64644024500c0b58846f7
:10411800640a2d0ec70f002d49d0ff2d4fd08023e4
:10412800e400db041c43002399469a467f3d43463e
:1041380042465e02d20f5b00760a1b0e904646d0be
:10414800ff2b12d080220020f600d2047f3b1643ba
:10415800ed186a1c434694464a467b400f2a00d90c
:1041680074e0704992008a589746ff35002e54d162
:104178004a4602231a4391460220eae7434634009e
:1041880082465246022a2ad0032a00d1c3e0012ad5
:1041980000d082e0002200246402d205600adb0716
:1041a800104318431cbc90469946a246f0bd002c0b
:1041b80027d104239946033b00259a46b7e7002cec
:1041c80019d108239946063bff259a46afe7002eea
:1041d80008d14a4601231a4391460120b9e7ff2234
:1041e8000024d9e7300003f0e5fc431f2d1a9e4058
:1041f800763d0020ade70c239946093bff259a46fa
:1042080095e7200003f0d6fc7625431f9c40002349
:104218006d422d1a99469a4689e74a4603231a435e
:104228009146032095e73b00abe780240023e40395
:10423800ff22b1e78023db031c4245d01e4243d155
:1042480033435c02640a4346ff22a5e7200c24049a
:10425800210c0f00320c3604360c77435143464389
:10426800504389193a0c5218964203d980214902c1
:10427800884640443f0411043f0cc9198c01661e4e
:10428800b441890e2143140c2418a4010c432201c3
:104298003cd50122610814400c4360467f30002859
:1042a8001add620704d00f222240042a00d0043409
:1042b800220103d560461c4a80301440fe288edc5b
:1042c800a401640ac2b267e78020c0030443640201
:1042d800640a3b00ff225fe70122101a1b2800dd59
:1042e80058e762469e3221009440c140621e9441c4
:1042f8000c43620704d00f222240042a00d0043461
:10430800620105d4a401640a002245e7ac46c4e76b
:104318000122002440e78022d20314436402640a85
:0c432800ff2239e74c7a0000fffffff78e
:020000040000fa
:10433400f0b5de4657464e464546e0b5abb00500ff
:10434400002004f0fbf928786b781b020343a8785b
:1043540000040343e8780006184300f02fff04002c
:1043640000220021002000f0b1fa03f0f7fe02f071
:1043740045ff02ab0022da8084420fd9002c0dd015
:10438400002398460f339a461d2702ab9c46674488
:1043940002236a4613716d4b9b4699e002f05aff63
:1043a400061e36d0012703e00137bfb2be4230d328
:1043b400380003f055f803f0f3f8b842f4d03800ad
:1043c40003f04ef80100102204a804f01ff938008d
:1043d40003f046f8012103f019f802230193380091
:1043e40003f03ef803f0dcf8b842ddd0380003f007
:1043f40037f8102204a904f009f9380003f030f862
:1044040001994b1cdbb29a4603f000f85346019322
:10441400e5e704f01df903282ad008aa0e23137136
:1044240093780f218b4306210b439370012c1fd9e2
:104434000223984602271600444b994643461a0124
:1044440031880f230b40134333804b461b881622bd
:1044540053439bb23e4a3100280001f059fd013715
:10446400bfb2434601331b051b0d9846bc42e5d23f
:1044740004f0eef803281ad008ab1988102252422f
:104484000a431a809a780f218a4303210a439a70b7
:1044940002221a711d2302aa9446634400221a7050
:1044a4005a7008a9280003f033f90028f9d103f061
:1044b400b5fc2bb03cbc90469946a246ab46f0bd39
:1044c40002f09cfe844200d868e7444500d165e7c9
:1044d400434601339bb2984608ae0d233371b3783b
:1044e4005246934306221343b370013003013088cc
:1044f40052461040184330806b461b793b700023b2
:104504007b7002f0a7fe02ab991d013008800222e5
:104514001f209c46604404f079f85b461b889bb2dc
:1045240099463100280003f0f3f804f0d9f80600a6
:1045340004f0d6f8801b0e2800d92fe7fdf7beff44
:10454400024b1b889bb29945f2d0b9e79e13002019
:044554000408002037
:020000040000fa
:10455800f0b5a5b06c4a6d23d35c002b05d100f0f3
:104568008dfd00232393684db3e004f0b7f8664b44
:104578001b6fc01a654b9842f1d9634b00226d211d
:104588005a541a6701395a54e9e77279b3791b0208
:104598001343022b2dd0042b60d0002b00d098e0c1
:1045a8005b490b8801339bb20b8001af00233b7141
:1045b80009336b4402221a7000225a70b278120929
:1045c800f3781b0113431b0138880f220240134361
:1045d8003b80bb780f22934306221343bb70022211
:1045e8000b20684404f010f83900200001f010f89e
:1045f8006fe0454b187f0736013040009c46604409
:104608000222310004f000f8022231006b46981ca7
:1046180003f0faff3c4b1b881b051b0d6a461380f1
:1046280001af00233b7109336b4404221a70002246
:104638005a703a880f2313403b80bb780f2293436c
:1046480006221343bb70042269460b20684403f01a
:10465800dbff3900200000f0dbff3ae02a4b1b8823
:104668001b0517d1f11d0422684603f0cdff6b46e8
:104678005a882b881205120d1b0b1b0313432b8022
:104688002b7f6a4612885b00eb185a80200001f0e5
:104698009ffd1ee01c4b1b881b0b1b031a4a138033
:1046a800002001f0b3f8dde7174b00226d215a54c2
:1046b8001a676c326c3999541fe003f07dffff28ac
:1046c800fbd0f11d042201a803f09eff019800f021
:1046d8002bfc23a8fef7e4fb002812d1239e300010
:1046e80001f0f6f904003379012bf2d0002b00d148
:1046f8004be7022bd8d0032bdfd02398fff71cf809
:10470800e7e725b0f0bdc046cc100020b80b00008c
:04471800b6130020b4
:020000040000fa
:10471c00f0b5ce46474680b583b08046160001936f
:10472c00634b1f883c01e41ba400e419614b9946c0
:10473c00e51888b202f0a6fc4b461855030a6b70bc
:10474c00030cab70000ee87042462a71120a6a71b3
:10475c0042461202120eaa714246100ee8713178ce
:10476c00297200290cd0280008300123d9b2f25c40
:10477c00c254002a04d00131c9b201330f2bf5d138
:10478c004c4a3b01db1b9b00db19d3185918002347
:10479c000b72230018339846904410220021404697
:1047ac0003f062ff424b1b881801c018ff239b02c9
:1047bc009c4660444246102103f03eff4346197864
:1047cc0020230a009a431300413bdab21923934287
:1047dc009b415b424a4251410b4343d1230030334e
:1047ec0034495b180022002018705a709a703b01f3
:1047fc00db1b9b00df19c8190200303201ab1e789d
:10480c00167001325e78167001329b7813702a4b49
:10481c00013213701e0a56701e0c96701b0ed3704c
:10482c007b5c427812021a4383781b041a43c378c8
:10483c001b061343373464181a009c72230ad37274
:10484c0023021b0e1373240e5473194a138801335d
:10485c009bb21380052b26d8280003b00cbc9046c5
:10486c009946f0bd32783b01db1b9b00db191149eb
:10487c00cb181a76002a0cd0280018300123dab293
:10488c00f15cc154002904d00132d2b201330f2b98
:10489c00f5d13b01db1b9b00db190649cb189a18a1
:1048ac00002313769ae70549054801f06bffd3e71f
:1048bc009c130020780e00203813002059020000b1
:0448cc00507e00001a
:020000040000fa
:1048d000f8b5ce46474680b506000c009046002845
:1048e00019d0002929d04346002b2bd0574b1988cb
:1048f000002900d1a3e0564b9e4200d17de0554aed
:10490000002301339bb2994221d010003d30b242c6
:1049100020d00200f5e7504a0023136053609360f3
:10492000d36013614d4a136053609360d360136189
:104930004b4a1380012040425be04a494a4801f05b
:1049400027ffd0e74949484801f022ffcee7012080
:1049500040424ee0464a934200d173e099469a00a5
:104960003e495258002a06d19b006179a279120271
:104970000a433a495a506279a3791b0213434a46c3
:10498000920036495258934239d8354b1b88002b38
:1049900006d0803b6179a27912020a43934233dc4c
:1049a0006279a3791b0213431f1c9bb2802b00d991
:1049b0008027bfb2284e4b469d00ab594344180098
:1049c000e11d3a0003f024feab599c466744af5109
:1049d0006279a3791b021343214a13801f4beb58c2
:1049e0009f421bd86279a3791b0213430020802bbe
:1049f0001ad90cbc90469946f8bd0023aee71d4974
:104a0000194801f0c5fec0e74b469e000023124a3c
:104a1000b350134a138001204042eae7ce218900b7
:104a2000114801f0b5fedde74b469e0000230a4a1f
:104a3000b3500b4a1380094ab058b350d9e701204c
:104a40004042d6e701204042d3e7c0469c130020f5
:104a5000780e0020b50e0020e0120020f412002095
:104a60009813002009030000507e00000a03000094
:084a7000ffff00001903000024
:020000040000fa
:104a7800f0b557464e464546de46e0b5040083b0dd
:104a88000d00924699468b4230d82dd04946504663
:104a980003f058fd29000600200003f053fd331ae7
:104aa8009846203b9b4633d45a4653469340424649
:104ab8001f00534693401e00af423ad8af4200d180
:104ac8007be05b46a41bbd41002b00da78e00022a6
:104ad80000230092019301235a4693400193012336
:104ae80042469340009328e08242cfd90022002317
:104af800009201930c9b002b01d01c605d60009814
:104b0800019903b03cbc90469946a246ab46f0bd1d
:104b1800424620239b1a5246da40414613004a4631
:104b28008a40170042461f43534693401e00af4237
:104b3800c4d900220023009201934346002bd9d008
:104b4800fb079c46614672080a437b0846460ee00e
:104b5800ab4201d1a2420cd8a41a9d4101202419cc
:104b68006d410021013e24184d41002e06d0ab4274
:104b7800eed9013e24196d41002ef8d10098019913
:104b88005b4600196941002b25db2b005a46444639
:104b9800d3402a00e2401c005b461500002b2bdbab
:104ba80026005f46be40330026004746be4032001e
:104bb800801a9941009001919ce7a342b9d880e7f7
:104bc8004246202300219b1a0022009101920122d3
:104bd800da40019283e7424620239b1a2a00464680
:104be8009a402300f340444613432a00e2401c0045
:104bf8005b461500002bd3da2023424626009b1a79
:104c0800de402f00b4464646b74066463b00334375
:044c1800cae7c046e1
:020000040000fa
:104c1c0070b5010083781b071b0fdab2062a00d986
:104c2c009de09b005f4ad3589f465f4a6423d35a4a
:104c3c009bb2002b55d003781b0940780001184318
:104c4c00138c9bb2984200d18be00022564d642409
:104c5c002e00013292b22b5b9bb2934241d9d3000e
:104c6c009b1a5b00f3181b8c9bb28342f1d1022080
:104c7c0054e04d4a137b1020834313730a781209b6
:104c8c004b781b01134348486822825ad200934246
:104c9c0010dd02006820105ac000c0431b189bb2e4
:104cac00d808121866321278d2b2072003401a4183
:104cbc00d30711d43c4a7423d05cc0b2002852d123
:104ccc000233d25a92b28c782409cb781b0123433d
:104cdc009a4223d0023021e0334a7823d05cc0b210
:104cec001ce0314a7423d05cc0b200283dd10233a1
:104cfc00d25a92b28c782409cb781b0123439a4266
:104d0c000cd002300ae003781b09407800011843ec
:104d1c00264b9c46604443425841400070bd224a99
:104d2c00137b1020834313730a7812094b781b01f1
:104d3c0013431ed11c4b1b7f022b03d01a4b5b7fe2
:104d4c00002b02d0184b1b8819e0174a7833d05c23
:104d5c00c0b2e3e7144a7823d05cc0b2dee700208f
:104d6c00dce70220dae70020d8e70020d6e70020b5
:104d7c00d4e70d4a12881205120d9342ead00a4a62
:104d8c007423d05cc0b20028f1d10233d25a92b253
:104d9c008c782409cb781b0123439a42bed0023075
:104dac00bce7c046ac840000cc10002001f0ffff33
:020000040000fa
:104dbc0070b584b00023039309336b440a226a4410
:104dcc0003a901a801f03ef8002801d004b070bd81
:104ddc0003f038fa0028f9d101998b7aca7a1202b9
:104dec001a430b7b1b041a434b7b1b0613434a4a87
:104dfc001278d2b21978914204d3474a1278d2b2bf
:104e0c00092a2bd9444a117819701378dbb2092b73
:104e1c0024d9424b5b7e002b09d001990398027870
:104e2c00120943781b0113430b721b0a4b720023ac
:104e3c00394a1370394a5376039a13781b09507800
:104e4c0000011843fef7a2f909236b440a226a44b5
:104e5c0003a901a800f0f6ffff28b7d0039a9178b8
:104e6c000f230b40012b26d00124062b23d003f05b
:104e7c00e9f90028aad1294d2c7601232b7403f0d3
:104e8c00cafb002003f022fc254bab60012003f091
:104e9c001dfc039b6b61180003f030fc002803d051
:104eac001d4b1b78002b15d00a236b4419880398d3
:104ebc0001f03cf98ae709236b441b780224002b90
:104ecc00d5d013781b09547824011c4363425c41f0
:104edc000134cce7039802f011fa039e7379b4798c
:104eec0024021c4325000935adb2023d751902227e
:104efc002900684603f086fb6b461a88023ca0b278
:104f0c003018092102f0aefe6b46991c0880022273
:104f1c00280003f077fbc7e7b9130020cc10002062
:044f2c00c15b000065
:020000040000fa
:104f300070b505003f4b404a5a80404a136a04212d
:104f40000b4313623e4c23680226b3432360010bdc
:104f500000053c4a002302f059fd404280b2a08186
:104f6000394b2360394b636023683343236022004d
:104f7000d369002bfcd1324b00249c7504229a7516
:104f8000334bc22080001a5832491140c02212020d
:104f90000a431a50802292001a602900294800f022
:104fa000a5f980b22c4b1880224b2c4a5a80234af8
:104fb000116adb0c0b431362294b1c801a00d37b54
:104fc0005bb2002bfbdb264a602313805c3b5371f2
:104fd000214b198889b20b035b1a9b005b1a9b005b
:104fe000013b9bb213820020507301235373184b73
:104ff000c424a4001a591b491140c02212040a43b8
:105000001a518022d2021a600c4a536920210b43a4
:105010005361154a154b5a631549996315495961ee
:105020003f2158541449596414491180144a1a8074
:1050300070bdc046000c0040144000000004004059
:1050400000080042006cdc02040112400002030070
:1050500000e100e0ff00ffffa41300201b40000060
:10506000002c0042ffff00ff081300200048004111
:105070001813002081818181000280000904000052
:04508000020f00001b
:020000040000fa
:1050840010b5424b1888642358430a2100f02cf9c8
:10509400c0b23f4b1b681a78824200d218703d4b55
:1050a4001888642358430a2100f01ef9c0b2384b13
:1050b4001b689a78824200d29870002003f00afba1
:1050c400354b1b685a1c46d0344a934202d3344aa7
:1050d400934204d30821ff31324801f057fb2e4b91
:1050e4001868314b1c68a0422ed9041b012003f020
:1050f400f1fa6006001b80000019c000001b80004c
:105104002a4b9c4660449621ff3100f0edf8c0b272
:105114001f4b1b68da78824200d2d870244b19687e
:10512400002906d007221d4803f070fa204b002204
:105134001a60002003f0cefa1e4b1b78012b15d009
:10514400012003f0c7fa10bd9630ff30041b012084
:1051540003f0c0facde7184b18689630ff30124bb5
:105164001c68041b012003f0b5fac2e7114b0022ae
:105174001a700d4b1968104b1868fbf7f1fa0028e8
:10518400ded0f721074801f001fbd9e7a81300207e
:1051940070130020aa13002074130020740b002045
:1051a400090d0020b07e000068130020349e00002a
:0c51b40060130020a90f002064130020ed
:020000040000fa
:1051c000f0b5de4657464e464546e0b5a3b006006c
:1051d000434a6c23d35cdbb20020012b78d8002536
:1051e0006b465f1d0023984624e03d4c6d23012251
:1051f000e25403f077fa20676c230222e254384a23
:105200006c23d35c032b62d013881b0b1b0301217f
:105210000b4313800122334b1a8001233370002388
:105220007370300000f0d8ffff2846d1042d48d815
:105230000135edb26b461a8810235b4213436a4670
:10524000138093780f229343032213436a4693708b
:105250000123137143463b707b700024204b9a4618
:105260006c23994653464a469b5cdbb2012bc6d859
:105270006946300000f0d0f903f0a2f90028fbd114
:1052800000f0c8fa03f02efa834603f02bfa5b46cf
:10529000c01a0128f9d90134e4b203f0ebf8002870
:1052a000e0d1052cded80e4a13881b0b1b0313809c
:1052b00003f090f9042ca2d897e70a4b188880b223
:1052c00006e01c21ff31084801f062fab0e7002037
:1052d00023b03cbc90469946a246ab46f0bdc046c2
:0c52e000cc100020b61300205880000005
:020000040000fa
:1052ec00002243088b4274d303098b425fd3030a19
:1052fc008b4244d3030b8b4228d3030c8b420dd32c
:10530c00ff22090212ba030c8b4202d312120902b9
:10531c0065d0030b8b4219d300e0090ac30b8b42f7
:10532c0001d3cb03c01a5241830b8b4201d38b03a5
:10533c00c01a5241430b8b4201d34b03c01a52414a
:10534c00030b8b4201d30b03c01a5241c30a8b428d
:10535c0001d3cb02c01a5241830a8b4201d38b0278
:10536c00c01a5241430a8b4201d34b02c01a52411c
:10537c00030a8b4201d30b02c01a5241cdd2c3098e
:10538c008b4201d3cb01c01a524183098b4201d30a
:10539c008b01c01a524143098b4201d34b01c01af5
:1053ac00524103098b4201d30b01c01a5241c3086d
:1053bc008b4201d3cb00c01a524183088b4201d3dc
:1053cc008b00c01a524143088b4201d34b00c01ac8
:1053dc005241411a00d20146524110467047ffe734
:1053ec0001b5002003f0d4f902bdc0460029f7d066
:0453fc0076e7704799
:020000040000fa
:10540000f7b58a8905000c0013075dd44b68002ba3
:1054100004dc0b6c002b01dc0020febde76a002fd2
:10542000fad000232e682b6080235b011a4034d011
:10543000606da3895b0706d56368c01a636b002b98
:1054400001d0236cc01a0200216a00232800e76af9
:10545000b847a189431c06d12b681d2b31d82c4a93
:10546000da40d3072dd50023636023692360cb0482
:1054700005d5431c02d12b68002b00d16065616b00
:105480002e600029c8d023004433994202d028005e
:1054900001f01cf800206063bfe70123216a2800a7
:1054a000b847431cc5d12b68002bc2d01d2b01d09f
:1054b000162b01d12e60afe74023a2891343a381ad
:1054c000abe740230b43fae70f69002fa4d00b682a
:1054d0000f60db1b01930023920700d14b69a3608f
:1054e000019b002b00dc97e7019b3a00216a280012
:1054f000a66ab047002806dc40230120a28940426a
:105500001343a38189e7019b3f181b1a0193e7e727
:045510000100402036
:020000040000fa
:10551400002020202020202020202828282828207f
:105524002020202020202020202020202020202077
:1055340020881010101010101010101010101010df
:1055440010040404040404040404041010101010cf
:105554001010414141414141010101010101010199
:1055640001010101010101010101010110101010eb
:10557400101042424242424202020202020202026b
:1055840002020202020202020202020210101010bf
:1055940020000000000000000000000000000000e7
:1055a40000000000000000000000000000000000f7
:1055b40000000000000000000000000000000000e7
:1055c40000000000000000000000000000000000d7
:1055d40000000000000000000000000000000000c7
:1055e40000000000000000000000000000000000b7
:1055f40000000000000000000000000000000000a7
:105604000000000000000000000000000000000096
:015614000095
:020000040000fa
:025616007047db
:020000040000fa
:10561800f0b5c64600b584b005000c000b79292bff
:105628004dd823780f22934323702a786b781b0276
:1056380013434bd01b051b0d0f221a401101a078f4
:105648000f2202400a43a2701b09e3706379a27912
:1056580012021a43161c92b2802a00d98026b6b2ca
:10566800330009339bb29846200003f049f8310013
:10567800002800d14146023989b2234a200002f0ad
:10568800f3fa03902000fff7c5fa0700a2780f236a
:105698001340012b1fd00022062b1cd00192009032
:1056a8004346039a21002800faf712fdff2802d08a
:1056b8000020012f24d104b004bc9046f0bd134a49
:1056c8006c23d35c012bacd0ff20f4e70f4b1b8875
:1056d8001b051b0db0e7002f05d02278120963784f
:1056e8001b01134305d1094a7823d35c0022022bfe
:1056f800d4d1064b1a7bd2b20a36b3b29846cde75c
:10570800fff758fb0020d6e7ffff0000cc10002071
:020000040000fa
:1057180070b5354b354a5a8035498b694022134359
:105728008b61344b4720002119541d5c40263543ba
:105738001d543930986058613a3819541c5c344308
:105748001c549a605a6104329954985c042420438a
:10575800985410259d61123a985c0324204398546c
:1057680045201954195c0126012421431954995cd8
:10577800302001439954204c082323706670a3708d
:105788000133e37026716371e279a3795b08d20172
:105798009b181a4a944663441a78d2b21a700020a9
:1057a80001f034f8e279a3795b08d2019b18134a17
:1057b800944663441a78d2b21a70012001f026f890
:1057c8000f4ac12189005358ff2083433f380343c0
:1057d800535015600b4a137802210b4313700a4883
:1057e800fff7a2fb70bdc046000c0040054000005a
:1057f80000040040004400414013002030440041b0
:0c58080000e100e00018004040420f00ea
:020000040000fa
:1058140070b50400284a6423d35a9bb2002b0ed0df
:105824000022254900256420d3009b1a5b00cb1875
:10583400dd830132d2b20b5a9bb29342f4d81f4b90
:105844001f4a13601f4a136009331f4a136000255f
:105854001e4b1d80282200211d4802f009ff1d4b0c
:105864001d80502200211c4802f002ff1b4b1d80aa
:10587400a02200211a4802f0fbfe1a4b1d601a4bad
:105884001d601a4b012252421a600022184b1a70f2
:10589400002c01d0174b1c6002f04afe064b762206
:1058a40000219952753a74315a5404315a540022e1
:1058b400114b1a7070bdc046cc100020740b002030
:1058c400641300206c13002068130020a813002028
:1058d40020120020a6130020a8110020aa130020e3
:1058e400ac0f0020601300207813002074130020f4
:0c58f400a90f0020701300209713002063
:020000040000fa
:1059000010b504000078c0b202f050fe2f4a138890
:1059100001339bb21380032b1bd0072b27d0012b05
:1059200004d02b49200002f053fb10bd01f0def93a
:1059300008225242d31780185941264b18605960eb
:10594000254b09321a7400221a76214b013a1a802b
:10595000e7e7224b1868fff761f90028e1d1204bf7
:10596000198800f0d1fe1c4b1e4a9a60dde7174be8
:1059700000221a80184b1c4a9a60184b1b685a79ef
:10598000997909020a43802a11d85a799b791b0216
:105990001343134a1380104b1b7b5b060dd4104b33
:1059a00019880029bdd0012000f0aefeb9e70c4bec
:1059b00080221a8001f07cfcede7094b1988002059
