:020000040000FA
:10000000F07F0020D5640000736E0000E16E0000F8
:1000100000000000000000000000000000000000E0
:10002000000000000000000000000000176E00004B
:100030000000000000000000176E0000196E0000B4
:10004000176E0000176E0000176E0000176E00009C
:10005000ED670000176E0000176E0000176E0000BD
:10006000176E0000A9590000176E0000176E0000FF
:10007000176E0000176E0000176E0000176E00006C
:10008000176E0000176E0000B1670000176E0000C9
:10009000176E0000176E0000176E0000176E00004C
:1000A000176E0000176E0000176E0000176E00003C
:1000B000F8B5C046F8BC08BC9E4670476D640000A9
:1000C000F8B5C046F8BC08BC9E46704745640000C1
:1000D0001043000001000000F8B5DE4657464E46CA
:1000E0004546E0B5A84B1B78012B54D0A74B1B8885
:1000F0009BB20A2B00D16DE2A44B1B889B00A44A43
:100100009B58002B04D0D6214900A24805F0B2FD2F
:100110009E4B1B889BB2002B0CD09D4B1B689E4AAC
:10012000934202D39D4A934204D3AE21FF319948B2
:1001300005F0A0FD954A13889B00994908689449E9
:10014000585013889BB2002B00D1FCE28F4A1388D1
:1001500001339BB2138093490B689A1E0A60127890
:10016000D20701D4013B0B608E4B1B6809338E4ACA
:10017000934200D90FE38B4B1B68894A1360093304
:100180008A4A1360804B01221A703CBC9046994603
:10019000A246AB46F8BD834B1F68834B9F4200D9F4
:1001A000F9E1834B1B687E4A1268904693420DD357
:1001B0009F420BD37E4B00221A607E4B1A68137944
:1001C000FF2B03D0013313716423D3707A4B1B6868
:1001D000984500D9DFE19F4200D2DCE1754B1B68F6
:1001E0006422DA70754B9A469B4625E09632FF32C0
:1001F000D31A82E09632FF32D31AA1E00A21FF31EE
:10020000644805F037FD664B1B68E11A9D4203D830
:1002100021009631FF31C91A674A1268934200D310
:10022000A1E0D31A994201D2634B1C60614B1A685A
:100230001379FF2B00D09AE053461B68434500D248
:1002400088E15B461B68BB4200D983E15C4B1B889D
:100250009BB2002B00D17DE1594B1B88584B1B886A
:100260009BB2002B16D00024544E554B99460020CB
:1002700006F0F9FD651CE400EB003419F31806CB19
:1002800006C4012006F0EFFDACB24B461B889BB2C2
:100290009C42ECD3002006F0E6FD494B1B889BB244
:1002A000002B04D0464A1388013B9BB213800120E7
:1002B00006F0D9FD404B012252421A60344B1C68B3
:1002C000002C1ED02500344B9C4202D3334B9C4261
:1002D00004D30A21FF312F4805F0CCFC304B1B68BA
:1002E000E11A9D4203D821009631FF31C91A324AE2
:1002F0001268934200D379E7D31A994201D22E4B68
:100300001C602E4B1C68002C1ED02500224B9C42EA
:1003100002D3224B9C4204D30A21FF311D4805F031
:10032000A9FC1F4B1B68E11A9D4203D8210096319E
:10033000FF31C91A204A1268934200D35AE7D31AF0
:10034000994201D21C4B1C601E4B1C68002C00D132
:100350006CE72500104B9C4200D24FE70F4B9C42AC
:1003600000D250E74AE79632FF32D31A5AE70133F8
:1003700013716423D3705FE79632FF32D31AAAE079
:100380009632FF32D31AC9E0170F0020B0100020B8
:10039000D00F0020A4690000480B0020DD0C0020D5
:1003A0008010002088100020DC0C00208410002029
:1003B000941000208C10002090100020800F00204E
:1003C000DE0C0020F80D00200A21FF31744805F0F2
:1003D00051FC744B1B68E11A9D4203D821009631F1
:1003E000FF31C91A704A1268934200D3A9E0D31AA8
:1003F000994201D26C4B1C606C4B1A681379FF2B2D
:1004000000D0A2E04B461B68984500D9A8E09F4267
:1004100000D2A5E053461B889BB2002B00D19FE081
:100420005B461B889BB20A2B04D8614B1B889BB28E
:10043000002B03D15F495A4805F01CFC5C4B1B881C
:100440009BB2002B12D000245B4D594E012006F0C8
:100450000AFD002006F007FD631C9A005259A40013
:1004600062519CB233889BB29C42EFD3504B1B88A5
:100470009BB2002B09D04E4A1388013B9BB21380DC
:1004800013889B004C4A00219950012006F0EBFC98
:10049000454B012252421A60474B1C68002C1ED06B
:1004A0002500464B9C4202D3454B9C4204D30A2173
:1004B000FF313B4805F0DEFB3A4B1B68E11A9D42D9
:1004C00003D821009631FF31C91A374A1268934286
:1004D00000D351E7D31A994201D2334B1C60394BF8
:1004E0001C68002C1ED02500344B9C4202D3344B98
:1004F0009C4204D30A21FF31294805F0BBFB294B5C
:100500001B68E11A9D4203D821009631FF31C91AB8
:10051000254A1268934200D332E7D31A994201D296
:10052000214B1C60284B1C68002C00D164E725007F
:10053000224B9C4200D247E7214B9C4200D248E725
:1005400042E79632FF32D31A52E701331371642324
:10055000D37057E7184B9946154B9A469B4651E77F
:10056000194C2500194E114B99462368434512D367
:100570002B68BB420FD833889BB2002B0BD004F002
:1005800001F84B461A681379FF2BEED00133137133
:100590006423D370E9E70E4B00221A70A6E5C0462B
:1005A000A469000080100020901000208C10002012
:1005B000B010002047020000D00F0020480B0020A0
:1005C000DD0C0020800F0020F80D0020B21000206C
:1005D000170F0020724B1B889BB20A2B04D8704B5C
:1005E0001B889BB2002B03D16E496F4805F042FB7C
:1005F0006B4B1B889BB2002B12D000246B4D684EB6
:10060000012006F030FC002006F02DFC631C9A004F
:100610005259A40062519CB233889BB29C42EFD3E2
:100620005F4B1B889BB2002B09D05D4A1388013BAE
:100630009BB2138013889B005C4A002199500120D3
:1006400006F011FC5A4B012252421A60574B1C68AB
:10065000002C1DD02500574B9C4202D3564B9C4288
:1006600004D30A21FF31504805F004FB534B1B68AB
:10067000E11A9D4203D821009631FF31C91A4C4A34
:100680001268934253D2D31A994201D2484B1C604C
:100690004B4B1C68002C1DD02500464B9C4202D3BE
:1006A000454B9C4204D30A21FF313F4805F0E2FA52
:1006B000424B1B68E11A9D4203D821009631FF315D
:1006C000C91A3B4A1268934235D2D31A994201D2D1
:1006D000374B1C603B4B1C68002C1DD02500354B54
:1006E0009C4202D3344B9C4204D30A21FF312E4852
:1006F00005F0C0FA314B1B68E11A9D4203D8210076
:100700009631FF31C91A2A4A1268934217D2D31A76
:10071000994201D2264B1C602B4B1A681379FF2B90
:1007200000D1E9E40133137164231370E4E49632D9
:10073000FF32D31AA8E79632FF32D31AC6E79632B1
:10074000FF32D31AE4E70C68002C00D1FEE4250048
:10075000184B9C4202D3184B9C4204D30A21FF3110
:10076000114805F087FA154B1B68E11A9D4203D822
:1007700021009631FF31C91A0D4A1268934206D200
:10078000D31A994200D3E1E4094B1C60DEE49632AF
:10079000FF32D31AF5E70D4B064A1A60EBE4C04668
:1007A000B010002047020000A4690000D00F002014
:1007B00090100020480B0020DD0C0020801000204D
:1007C000800F0020F80D00208C10002088100020E1
:1007D000F0B5DE4657464E464546E0B583B001903B
:1007E0008E4B1968002906D007228D4806F00AFBB7
:1007F0008A4B00221A60002006F035FB894B1B78DB
:10080000012B10D0012006F02EFB874B1B889BB2DA
:10081000FF20002B00D023E203B03CBC9046994659
:10082000A246AB46F0BD7F4B00221A707F4B1F687B
:100830007F4B9F4200D9D1E27E4B1B687E4A1268F3
:10084000904693420DD39F420BD37A4B00221A60FD
:100850007A4B1A681379FF2B03D001331371642389
:10086000D370774B1B689845CCD89F42CAD3734B43
:100870001B686422DA70734B9B46994625E09632DA
:10088000FF32D31A82E09632FF32D31AA1E00A2156
:10089000FF316D4805F0EEF9674B1B68E11A9D4288
:1008A00003D821009631FF31C91A654A1268934274
:1008B00000D3A1E0D31A994201D2614B1C605F4B77
:1008C0001A681379FF2B00D09AE05B461B684345FA
:1008D00000D289E14B461B68BB4200D984E15B4BE7
:1008E0001B889BB2002B00D17EE1584B1B88574BD5
:1008F0001B889BB2002B16D00024524E534B9A46B5
:10090000002006F0B0FA651CE400EB003419F3187F
:1009100006CB06C4012006F0A6FAACB253461B88EB
:100920009BB29C42ECD3002006F09DFA474B1B88FB
:100930009BB2002B04D0454A1388013B9BB2138025
:10094000012006F090FA3E4B012252421A60404BC1
:100950001C68002C1ED02500314B9C4202D33D4B1D
:100960009C4204D30A21FF31374805F083F9324B0A
:100970001B68E11A9D4203D821009631FF31C91A44
:100980002F4A1268934200D379E7D31A994201D2D1
:100990002B4B1C602B4B1C68002C1ED02500204BC1
:1009A0009C4202D32B4B9C4204D30A21FF312648A0
:1009B00005F060F9204B1B68E11A9D4203D8210025
:1009C0009631FF31C91A1E4A1268934200D35AE782
:1009D000D31A994201D21A4B1C601F4B1C68002C81
:1009E00000D16CE725000E4B9C4200D24FE7194B1B
:1009F0009C4200D250E74AE79632FF32D31A5AE7B8
:100A0000013313716423D3705FE79632FF32D31A38
:100A1000ABE09632FF32D31ACAE0C0467C10002009
:100A2000480B0020170F0020B01000208410002079
:100A3000DC0C002094100020801000208C1000207E
:100A400090100020800F0020A4690000DE0C002020
:100A5000D00F0020DD0C0020F80D00200A21FF310E
:100A6000734805F007F9734B1B68E11A9D4203D8E0
:100A700021009631FF31C91A6F4A1268934200D3A0
:100A8000A9E0D31A994201D26B4B1C606B4B1A68D8
:100A90001379FF2B00D0A2E053461B68984500D97C
:100AA000A7E09F4200D2A4E05B461B889BB2002BCC
:100AB00000D19EE0624B1B889BB20A2B04D8604B8E
:100AC0001B889BB2002B03D15E49594805F0D2F830
:100AD0005B4B1B889BB2002B12D000245A4D584E02
:100AE000012006F0C0F9002006F0BDF9631C9A0051
:100AF0005259A40062519CB233889BB29C42EFD3FE
:100B00004F4B1B889BB2002B09D04D4A1388013BE9
:100B10009BB2138013889B004B4A002199500120FF
:100B200006F0A1F9444B012252421A60464B1C6860
:100B3000002C1ED02500454B9C4202D3444B9C42C6
:100B400004D30A21FF313A4805F094F8394B1B6869
:100B5000E11A9D4203D821009631FF31C91A364A65
:100B60001268934200D350E7D31A994201D2324B14
:100B70001C60384B1C68002C1ED02500334B9C4257
:100B800002D3334B9C4204D30A21FF31284805F09D
:100B900071F8284B1B68E11A9D4203D82100963159
:100BA000FF31C91A244A1268934200D331E7D31A9D
:100BB000994201D2204B1C60274B1C68002C00D1AD
:100BC00064E72500214B9C4200D247E7204B9C4222
:100BD00000D248E742E79632FF32D31A52E7013398
:100BE00013716423D37057E7174B9A46144B9B46F7
:100BF00052E7194C2500194E104B9A46236843457D
:100C000000D2FFE52B68BB4200D9FBE533889BB2DD
:100C1000002B00D1F6E503F0B5FC53461A681379B2
:100C2000FF2BEBD0013313716423D370E6E7C0468A
:100C3000A469000080100020901000208C1000207B
:100C4000B010002047020000D00F0020480B002009
:100C5000DD0C0020800F0020F80D0020B2100020D5
:100C6000614B1B68019A1360604DAB4202D3604A2E
:100C7000934203D35F49604804F0FCFF5F4B1B883D
:100C80009BB20A2B04D85D4B1B889BB2002B03D16F
:100C90005B49594804F0EEFF584B1B889BB2002B70
:100CA00012D00024504E554F012006F0DCF80020F1
:100CB00006F0D9F8631C9A009259A400A2519CB284
:100CC0003B889BB29C42EFD34C4B1B889BB2002BC2
:100CD00009D04A4A1388013B9BB2138013889B00BA
:100CE000414A00219950012006F0BDF8454B0122F0
:100CF00052421A603C4B1C68002C1CD02600A542B6
:100D000002D83B4B9C4204D30A21FF313A4804F0FD
:100D1000B1FF3D4B1B68E11A9E4203D8210096317A
:100D2000FF31C91A374A1268934249D2D31A9942FD
:100D300001D2344B1C60354B1C68002C1CD02600A3
:100D4000A54202D82A4B9C4204D30A21FF312A48EB
:100D500004F090FF2C4B1B68E11A9E4203D821003F
:100D60009631FF31C91A274A126893422CD2D31AFE
:100D7000994201D2234B1C60254B1C68002C2BD0C0
:100D80002600A54202D81A4B9C4204D30A21FF3107
:100D9000194804F06FFF1C4B1B68E11A9E4203D8F0
:100DA00021009631FF31C91A164A126893420FD2B8
:100DB000D31A0020994200D32EE5124B1C602BE57C
:100DC0009632FF32D31AB2E79632FF32D31ACFE708
:100DD0009632FF32D31AECE700201DE5D9210648F0
:100DE00004F048FF0EE5C046D00F0020480B00205D
:100DF000DD0C002062020000A4690000B010002099
:100E0000470200009010002080100020800F00207A
:100E1000F80D0020F0B5DE4657464E464546E0B593
:100E200083B0040001918E4B1968002906D0072277
:100E30008C4805F0E7FF8A4B00221A60002006F07C
:100E400012F8894B1B78012B10D0012006F00BF80B
:100E5000864B1B889BB2FF20A34200D920E203B03F
:100E60003CBC90469946A246AB46F0BD7E4B002264
:100E70001A707F4B1B6898467E4B984500D9CAE292
:100E80007D4B1B687D4A1268914693420DD398456D
:100E90000BD3794B00221A60794B1A681379FF2B18
:100EA00003D0013313716423D370764B1B689945CB
:100EB000CBD89845C9D3724B1B686422DA70724B49
:100EC0009B4625E09632FF32D31A82E09632FF32FB
:100ED000D31AA1E00A21FF316C4804F0CBFE674B26
:100EE0001B68E91A9E4203D829009631FF31C91ABE
:100EF000644A1268934200D3A1E0D31A994201D206
:100F0000604B1D605E4B1A681379FF2B00D09AE08E
:100F10005B461B684B4500D286E15B4B1B68434533
:100F200000D981E1514B1B889BB2002B00D17BE1A2
:100F30004E4B1B884D4B1B889BB2002B16D00025B7
:100F4000514F4A4B9A46002005F08DFF6E1CED0074
:100F5000F3007D19FB1806CB06C5012005F083FFC1
:100F6000B5B253461B889BB29D42ECD3002005F0DE
:100F70007AFF3E4B1B889BB2002B04D03B4A138860
:100F8000013B9BB21380012005F06DFF3D4B012218
:100F900052421A603E4B1D68002D1ED02E00314B70
:100FA0009D4202D33B4B9D4204D30A21FF31374877
:100FB00004F060FE314B1B68E91A9E4203D82900F9
:100FC0009631FF31C91A2F4A1268934200D379E74C
:100FD000D31A994201D22B4B1D602B4B1D68002D5B
:100FE0001ED02E001F4B9D4202D32A4B9D4204D39C
:100FF0000A21FF31254804F03DFE204B1B68E91A09
:101000009E4203D829009631FF31C91A1D4A126841
:10101000934200D35AE7D31A994201D2194B1D606B
:101020001D4B1D68002D00D16CE72E000D4B9D421D
:1010300000D24FE7174B9D4200D250E74AE7963265
:10104000FF32D31A5AE7013313716423D3705FE779
:101050009632FF32D31AA8E09632FF32D31AC7E095
:101060007C100020480B0020170F0020DE0C002011
:1010700084100020DC0C0020941000208010002040
:101080008C10002090100020800F0020A469000028
:10109000D00F0020DD0C0020F80D00200A21FF31C8
:1010A000734804F0E7FD734B1B68E91A9E4203D8AE
:1010B00029009631FF31C91A6F4A1268934200D352
:1010C000A9E0D31A994201D26B4B1D606B4B1A6891
:1010D0001379FF2B00D0A2E053461B68994500D935
:1010E000A7E0984500D2A4E05B461B889BB2002B8A
:1010F00000D19EE0624B1B889BB20A2B04D8604B48
:101100001B889BB2002B03D15E49594804F0B2FD05
:101110005B4B1B889BB2002B12D000255A4E584FB8
:10112000012005F0A0FE002005F09DFE6B1C9A003A
:101130009259AD00AA519DB23B889BB29D42EFD31C
:101140004F4B1B889BB2002B09D04D4A1388013BA3
:101150009BB2138013889B004B4A002199500120B9
:1011600005F081FE444B012252421A60464B1D6835
:10117000002D1ED02E00454B9D4202D3444B9D4274
:1011800004D30A21FF313A4804F074FD394B1B683F
:10119000E91A9E4203D829009631FF31C91A364A0E
:1011A0001268934200D353E7D31A994201D2324BCB
:1011B0001D60384B1D68002D1ED02E00334B9D4204
:1011C00002D3334B9D4204D30A21FF31284804F057
:1011D00051FD284B1B68E91A9E4203D8290096311D
:1011E000FF31C91A244A1268934200D334E7D31A54
:1011F000994201D2204B1D60274B1D68002D00D164
:1012000064E72E00214B9D4200D247E7204B9D42D0
:1012100000D248E742E79632FF32D31A52E7013351
:1012200013716423D37057E7174B9A46144B9B46B0
:1012300052E7194D2E00194F104B9A462B684B451B
:1012400000D202E63368434500D9FEE53B889BB2F5
:10125000002B00D1F9E503F095F953461A6813798C
:10126000FF2BEBD0013313716423D370E6E7C04644
:10127000A469000080100020901000208C10002035
:10128000B010002047020000D00F0020480B0020C3
:10129000DD0C0020800F0020F80D0020B21000208F
:1012A000E3005F4A9B58019A13605E4A13605E4BED
:1012B0001B889BB29C4205D95B4B1B889BB20A2BB7
:1012C00000D995E0584B1B889BB29C4213D2544DD9
:1012D000554E002005F0C7FD671CE400FB002C19EB
:1012E000EB1806CB06C4012005F0BDFDBCB2338867
:1012F0009BB29C42EDD3002005F0B5FD4A4B1B8804
:101300009BB2002B04D0484A1388013B9BB2138048
:10131000012005F0A8FD454B012252421A60444BC2
:101320001C68002C1DD02500424B9C4202D3424B2E
:101330009C4204D30A21FF31404804F09BFC404BFF
:101340001B68E11A9D4203D821009631FF31C91A6A
:10135000364A1268934250D2D31A994201D2334B83
:101360001C602F4B1C68002C1DD02500314B9C426B
:1013700002D3314B9C4204D30A21FF312F4804F0A1
:1013800079FC2F4B1B68E11A9D4203D8210096314E
:10139000FF31C91A254A1268934232D2D31A9942B0
:1013A00001D2224B1C60274B1C68002C31D0250039
:1013B000204B9C4202D3204B9C4204D30A21FF3194
:1013C0001E4804F057FC1E4B1B68E11A9D4203D8CF
:1013D00021009631FF31C91A144A1268934214D27F
:1013E000D31A0020994200D339E5104B1C6036E532
:1013F0001549124804F03EFC64E79632FF32D31AD6
:10140000ABE79632FF32D31AC9E79632FF32D31ACE
:10141000E7E7002023E5D921084804F02BFC14E578
:10142000800F002094100020DE0C0020901000207F
:10143000D00F0020480B0020DD0C0020A469000024
:1014400080100020F80D00207D020000F8B5DE4677
:1014500057464E464546E0B5B94B18886423584375
:101460000A2103F0CDFDC0B2B64B1B681A78824248
:1014700000D21870B44B1888642358430A2103F033
:10148000BFFDC0B2AF4B1B689A78824200D2987001
:10149000002005F0E8FCAD4B1B685A1C4AD0AC4A52
:1014A000934202D3AB4A934203D3E921AA4804F002
:1014B000E1FBA64B1868A94B1C68A04233D9041B5A
:1014C000012005F0D0FC6006001B80000019C00060
:1014D000001B8000A24B9C4660449621FF3103F024
:1014E0008FFDC0B2974B1B68DA78824200D2D87069
:1014F0009C4B1968002906D00722954805F082FC0C
:10150000984B00221A60002005F0ADFC964B1B782A
:10151000012B1AD0012005F0A6FC3CBC9046994650
:10152000A246AB46F8BD9630FF30041B012005F003
:101530009AFCC8E78D4B18689630FF30874B1C68C3
:10154000041B012005F08FFCBDE7874B00221A70B9
:10155000824B1F68864B9F4200D9FFE1854B1B6879
:10156000824A1268904693420DD39F420BD3814B1F
:1015700000221A60734B1A681379FF2B03D00133D2
:1015800013716423D370714B1B689845C2D89F4276
:10159000C0D36C4B1B686422DA70774B9A469B462B
:1015A00025E09632FF32D31A82E09632FF32D31A08
:1015B000A1E00A21FF31684804F05CFB6B4B1B681B
:1015C000E11A9D4203D821009631FF31C91A5F4AC2
:1015D0001268934200D3A1E0D31A994201D25B4B27
:1015E0001C60584B1A681379FF2B00D09AE05346C1
:1015F0001B68434500D28DE15B461B68BB4200D9A6
:1016000088E15E4B1B889BB2002B00D182E15B4BD3
:101610001B885A4B1B889BB2002B16D00024564EB9
:10162000564B9946002005F01EFC651CE400EB00BB
:101630003419F31806CB06C4012005F014FCACB233
:101640004B461B889BB29C42ECD3002005F00BFC60
:101650004A4B1B889BB2002B04D0484A1388013B9D
:101660009BB21380012005F0FEFB384B0122524251
:101670001A60434B1C68002C1ED02500344B9C4242
:1016800002D3344B9C4204D30A21FF31324804F088
:10169000F1FA364B1B68E11A9D4203D821009631BE
:1016A000FF31C91A294A1268934200D379E7D31A45
:1016B000994201D2254B1C602F4B1C68002C1ED078
:1016C0002500234B9C4202D3224B9C4204D30A2187
:1016D000FF31214804F0CEFA244B1B68E11A9D42E9
:1016E00003D821009631FF31C91A184A1268934273
:1016F00000D35AE7D31A994201D2144B1C60214BF4
:101700001C68002C00D16CE72500114B9C4200D2D4
:101710004FE7104B9C4200D250E74AE79632FF3227
:10172000D31A5AE7013313716423D3705FE79632FB
:10173000FF32D31AAFE09632FF32D31ACEE0C04662
:10174000B01000208C100020B2100020901000205B
:10175000480B0020DD0C0020A4690000841000204C
:10176000349E00007C100020170F00208010002005
:10177000DC0C002094100020800F0020DE0C0020E4
:10178000D00F0020F80D00200A21FF31764804F028
:1017900071FA764B1B68E11A9D4203D821009631FD
:1017A000FF31C91A724A1268934200D3A9E0D31AD2
:1017B000994201D26E4B1C606E4B1A681379FF2B55
:1017C00000D0A2E04B461B68984500D9A8E09F4294
:1017D00000D2A5E053461B889BB2002B00D19FE0AE
:1017E0005B461B889BB20A2B04D8634B1B889BB2B9
:1017F000002B03D161495C4804F03CFA5E4B1B8826
:101800009BB2002B12D000245D4D5B4E012005F0F1
:101810002AFB002005F027FB631C9A005259A40004
:1018200062519CB233889BB29C42EFD3524B1B88CF
:101830009BB2002B09D0504A1388013B9BB2138006
:1018400013889B004E4A00219950012005F00BFBA4
:10185000474B012252421A60494B1C68002C1ED093
:101860002500484B9C4202D3474B9C4204D30A219B
:10187000FF313D4804F0FEF93C4B1B68E11A9D42E4
:1018800003D821009631FF31C91A394A12689342B0
:1018900000D34CE7D31A994201D2354B1C603B4B25
:1018A0001C68002C1ED02500364B9C4202D3364BC0
:1018B0009C4204D30A21FF312B4804F0DBF92B4B67
:1018C0001B68E11A9D4203D821009631FF31C91AE5
:1018D000274A1268934200D32DE7D31A994201D2C6
:1018E000234B1C602A4B1C68002C00D164E72500A8
:1018F000244B9C4200D247E7234B9C4200D248E74E
:1019000042E79632FF32D31A52E701331371642350
:10191000D37057E71A4B9946174B9A469B4651E7A7
:101920001B4C25001B4E134B99462368434500D2A0
:10193000F0E52B68BB4200D9ECE533889BB2002B65
:1019400000D1E7E502F01EFE4B461A681379FF2B23
:10195000EBD0013313716423D370E6E7D921024839
:1019600004F088F9D6E5C046A46900008010002084
:10197000901000208C100020B010002047020000C2
:10198000D00F0020480B0020DD0C0020800F00202D
:10199000F80D0020B2100020F0B5DE4657464E4646
:1019A0004546E0B585B00090019102920393944BB7
:1019B0001B889BB2092B22D8924B1968002906D0AC
:1019C0000722914805F01EFA8E4B00221A60002073
:1019D00005F049FA8D4B1B78012B15D0012005F03D
:1019E00042FA874B1B889BB2FF20002B00D01EE2DF
:1019F00005B03CBC90469946A246AB46F0BD844932
:101A0000844804F037F9D7E7804B00221A70824BE4
:101A10001E68824B9E4200D918E2814B1B68814AA6
:101A20001768BB420DD39E420BD37D4B00221A6038
:101A30007D4B1A681379FF2B03D001331371642394
:101A4000D3707A4B1B689F42C8D89E42C6D3764B50
:101A50001B686422DA70764B9A469B46B04625E0B6
:101A60009632FF32D31A82E09632FF32D31AA1E0C7
:101A70000A21FF31674804F0FDF86A4B1B68E11A40
:101A80009D4203D821009631FF31C91A674A126876
:101A9000934200D3A1E0D31A994201D2634B1C6058
:101AA000614B1A681379FF2B00D09AE053461B68EC
:101AB000BB4200D28CE15B461B68434500D98FE1F5
:101AC0005C4B1B889BB2002B00D18FE0594B1B88CD
:101AD000584B1B889BB2002B16D00026544D554BFB
:101AE0009946002005F0BFF9741CF600E300AE191A
:101AF000EB1806CB06C6012005F0B5F9A6B24B4699
:101B00001B889BB29E42ECD3002005F0ACF9494BF8
:101B10001B889BB2002B04D0464A1388013B9BB222
:101B20001380012005F09FF9404B012252421A60B8
:101B3000414B1C68002C1ED02500334B9C4202D325
:101B40003E4B9C4204D30A21FF31324804F092F804
:101B5000344B1B68E11A9D4203D821009631FF31B6
:101B6000C91A324A1268934200D379E7D31A9942CC
:101B700001D22E4B1C602E4B1C68002C1ED0250061
:101B8000214B9C4202D32D4B9C4204D30A21FF31AE
:101B9000204804F06FF8234B1B68E11A9D4203D8DC
:101BA00021009631FF31C91A204A1268934200D3AE
:101BB0005AE7D31A994201D21C4B1C60204B1C6877
:101BC000002C00D16CE725000F4B9C4200D24FE760
:101BD0001A4B9C4200D250E74AE79632FF32D31AA2
:101BE0005AE7013313716423D3705FE74646F0E090
:101BF0009632FF32D31AACE09632FF32D31ACBE0E2
:101C0000B21000207C100020480B0020170F00208D
:101C10001F040000A469000084100020DC0C0020D8
:101C200094100020801000208C10002090100020C4
:101C3000800F0020DE0C0020D00F0020DD0C0020E3
:101C4000F80D00200A21FF31834804F013F8834B7C
:101C50001B68E11A9D4203D821009631FF31C91A51
:101C60007F4A1268934200D3A9E0D31A994201D265
:101C70007B4B1C607B4B1A681379FF2B00D0A2E0D2
:101C80004B461B689F4200D9AEE0984500D2CCE09D
:101C900053461B889BB2002B00D1A3E05B461B88F8
:101CA0009BB20A2B04D8704B1B889BB2002B03D12C
:101CB0006E49694803F0DEFF6B4B1B889BB2002B1B
:101CC00012D000246A4D684E012005F0CCF80020A7
:101CD00005F0C9F8631C9A005259A40062519CB2E5
:101CE00033889BB29C42EFD35F4B1B889BB2002B87
:101CF00009D05D4A1388013B9BB2138013889B0077
:101D00005B4A00219950012005F0ADF8544B0122A7
:101D100052421A60564B1C68002C1ED02500554BB1
:101D20009C4202D3544B9C4204D30A21FF314A48BF
:101D300003F0A0FF494B1B68E11A9D4203D8210024
:101D40009631FF31C91A464A1268934200D34FE7D1
:101D5000D31A994201D2424B1C60484B1C68002C9C
:101D60001ED02500434B9C4202D3434B9C4204D3DC
:101D70000A21FF31384803F07DFF384B1B68E11A18
:101D80009D4203D821009631FF31C91A344A1268A6
:101D9000934200D330E7D31A994201D2304B1C60F2
:101DA000374B1C68002C00D164E72500314B9C4266
:101DB00000D247E7304B9C4200D248E742E79632D8
:101DC000FF32D31A52E7013313716423D37057E7FC
:101DD0004646274B9946244B9A469B46B0464FE7CA
:101DE0004646F6E7464600E04646254C2500254B8C
:101DF00098461C4B99462368BB4200D2EEE52B68FF
:101E0000B34200D9EAE543461B889BB2002B00D1C0
:101E1000E4E502F0B7FB4B461A681379FF2BEAD0D2
:101E2000013313716423D370E5E74646DDE7144BB5
:101E30001A6801990A609A8802990A809A6800993A
:101E40000A601B7B039A13700020D1E5D921024858
:101E500003F010FFC2E5C046A46900008010002016
:101E6000901000208C100020B010002047020000CD
:101E7000D00F0020480B0020DD0C0020800F002038
:101E8000F80D0020B2100020F0B5DE4657464E4651
:101E90004546E0B583B0050001918E4B19680029D5
:101EA00006D007228C4804F0ADFF8A4B00221A604E
:101EB000002004F0D8FF894B1B78012B10D00120A3
:101EC00004F0D1FF864B1B889BB2FF20AB4200D9A8
:101ED00005E203B03CBC90469946A246AB46F0BD35
:101EE0007E4B00221A707F4B1B6898467E4B9845AC
:101EF00000D9FCE17D4B1B687D4A126891469342F4
:101F00000DD398450BD3794B00221A60794B1A6890
:101F10001379FF2B03D0013313716423D370764BF5
:101F20001B689945CBD89845C9D3724B1B6864226E
:101F3000DA70724B9A4625E09632FF32D31A82E06D
:101F40009632FF32D31AA1E00A21FF316C4803F028
:101F500091FE674B1B68E11A9E4203D8210096311F
:101F6000FF31C91A644A1268934200D3A1E0D31A20
:101F7000994201D2604B1C605E4B1A681379FF2BAB
:101F800000D09AE053461B684B4500D286E15B4B7C
:101F90001B68434500D981E1514B1B889BB2002B44
:101FA00000D17BE14E4B1B884D4B1B889BB2002B15
:101FB00016D00024514F4A4B9B46002004F053FF9B
:101FC000661CE400F3003C19FB1806CB06C4012094
:101FD00004F049FFB4B25B461B889BB29C42ECD331
:101FE000002004F040FF3E4B1B889BB2002B04D026
:101FF0003B4A1388013B9BB21380012004F033FF5E
:102000003D4B012252421A603E4B1C68002C1ED0F0
:102010002600314B9C4202D33B4B9C4204D30A2105
:10202000FF31374803F026FE314B1B68E11A9E4210
:1020300003D821009631FF31C91A2F4A1268934202
:1020400000D379E7D31A994201D22B4B1C602B4B5A
:102050001C68002C1ED026001F4B9C4202D32A4B2A
:102060009C4204D30A21FF31254803F003FE204B94
:102070001B68E11A9E4203D821009631FF31C91A2C
:102080001D4A1268934200D35AE7D31A994201D2EB
:10209000194B1C601D4B1C68002C00D16CE72600FE
:1020A0000D4B9C4200D24FE7174B9C4200D250E7A9
:1020B0004AE79632FF32D31A5AE701331371642389
:1020C000D3705FE79632FF32D31AA8E09632FF3220
:1020D000D31AC7E07C100020480B0020170F002007
:1020E000DE0C002084100020DC0C00209410002066
:1020F000801000208C10002090100020800F002005
:10210000A4690000D00F0020DD0C0020F80D002095
:102110000A21FF31784803F0ADFD784B1B68E11AC6
:102120009E4203D821009631FF31C91A744A1268C1
:10213000934200D3A9E0D31A994201D2704B1C609C
:10214000704B1A681379FF2B00D0A2E05B461B6826
:10215000994500D9A5E0984500D2A2E06A4B1B88BA
:102160009BB2002B00D19CE0674B1B889BB20A2BD3
:1021700004D8654B1B889BB2002B03D163495E4892
:1021800003F078FD604B1B889BB2002B12D000241B
:102190005F4E5D4F012004F066FE002004F063FEF8
:1021A000631C9A009259A400A2519CB23B889BB236
:1021B0009C42EFD3544B1B889BB2002B09D0524A50
:1021C0001388013B9BB2138013889B00504A002167
:1021D0009950012004F047FE494B012252421A60F7
:1021E0004B4B1C68002C1ED026004A4B9C4202D34D
:1021F000494B9C4204D30A21FF313F4803F03AFD8A
:102200003E4B1B68E11A9E4203D821009631FF31F4
:10221000C91A3B4A1268934200D353E7D31A994232
:1022200001D2374B1C603D4B1C68002C1ED0260091
:10223000384B9C4202D3384B9C4204D30A21FF31D5
:102240002D4803F017FD2D4B1B68E11A9E4203D861
:1022500021009631FF31C91A294A1268934200D3EE
:1022600034E7D31A994201D2254B1C602C4B1C68D1
:10227000002C00D164E72600264B9C4200D247E7A1
:10228000254B9C4200D248E742E79632FF32D31AF0
:1022900052E7013313716423D37057E71C4B9B46FD
:1022A00054E71F4C26001F4F164B9B4623684B4597
:1022B00000D204E63368434500D900E63B889BB270
:1022C000002B00D1FBE502F05DF95B461A6813793B
:1022D000FF2BEBD0013313716423D370E6E7ED00DD
:1022E0000E4B5D196B68019A13600020F1E5D9214E
:1022F000014803F0BFFCE2E5A46900008010002063
:10230000901000208C100020B01000204702000028
:10231000D00F0020480B0020DD0C0020800F002093
:10232000F80D0020B2100020F8B5DE4657464E46A4
:102330004546E0B5894B1B78012B16D0884B1B68AE
:10234000884A13600933884A1360884A934200D34D
:102350000CE2874B824A12689A4200D10CE23CBCE4
:1023600090469946A246AB46F8BD7C4B00221A70B7
:102370007C4B1F687F4B9F42E0D87F4B1B68784A9D
:102380001268904693420DD39F420BD37A4B0022A2
:102390001A607A4B1A681379FF2B03D0013313713B
:1023A0006423D370764B1B689845C7D89F42C5D32A
:1023B000724B1B686422DA70724B9A469B4625E08A
:1023C0009632FF32D31A82E09632FF32D31AA1E05E
:1023D0000A21FF316C4803F04DFC614B1B68E11A88
:1023E0009D4203D821009631FF31C91A644A126810
:1023F000934200D3A1E0D31A994201D2604B1C60F2
:102400005E4B1A681379FF2B00D09AE053461B6885
:10241000434500D286E15B461B68BB4200D981E19F
:102420005A4B1B889BB2002B00D17BE1574B1B887A
:10243000564B1B889BB2002B16D00024514E534B99
:102440009946002004F00FFD651CE400EB003419F0
:10245000F31806CB06C4012004F005FDACB24B46D0
:102460001B889BB29C42ECD3002004F0FCFC474B41
:102470001B889BB2002B04D0444A1388013B9BB2BB
:102480001380012004F0EFFC3D4B012252421A6000
:102490003F4B1C68002C1ED02500354B9C4202D3BC
:1024A000324B9C4204D30A21FF31374803F0E2FB50
:1024B0002B4B1B68E11A9D4203D821009631FF3156
:1024C000C91A2F4A1268934200D379E7D31A994266
:1024D00001D22B4B1C602B4B1C68002C1ED02500FE
:1024E000234B9C4202D3214B9C4204D30A21FF314F
:1024F000254803F0BFFB1A4B1B68E11A9D4203D825
:1025000021009631FF31C91A1D4A1268934200D347
:102510005AE7D31A994201D2194B1C601D4B1C6813
:10252000002C00D16CE72500114B9C4200D24FE7F4
:102530000E4B9C4200D250E74AE79632FF32D31A44
:102540005AE7013313716423D3705FE79632FF3289
:10255000D31AA8E09632FF32D31AC7E0170F002033
:10256000801000208810002084100020DD0C002046
:10257000480B0020DC0C0020941000208C10002060
:1025800090100020800F0020A4690000DE0C0020C5
:10259000D00F0020F80D00200A21FF31784803F009
:1025A00069FB784B1B68E11A9D4203D821009631E4
:1025B000FF31C91A744A1268934200D3A9E0D31AB2
:1025C000994201D2704B1C60704B1A681379FF2B33
:1025D00000D0A2E04B461B68984500D9A8E09F4276
:1025E00000D2A5E053461B889BB2002B00D19FE090
:1025F0005B461B889BB20A2B04D8654B1B889BB299
:10260000002B03D163495E4803F034FB604B1B8809
:102610009BB2002B12D000245F4D5D4E012004F0D0
:1026200022FC002004F01FFC631C9A005259A400F5
:1026300062519CB233889BB29C42EFD3544B1B88AF
:102640009BB2002B09D0524A1388013B9BB21380E6
:1026500013889B00504A00219950012004F003FC8C
:10266000494B012252421A604B4B1C68002C1ED071
:1026700025004A4B9C4202D3494B9C4204D30A2179
:10268000FF313F4803F0F6FA3E4B1B68E11A9D42CA
:1026900003D821009631FF31C91A3B4A1268934290
:1026A00000D353E7D31A994201D2374B1C603D4BFC
:1026B0001C68002C1ED02500384B9C4202D3384B9E
:1026C0009C4204D30A21FF312D4803F0D3FA2D4B4D
:1026D0001B68E11A9D4203D821009631FF31C91AC7
:1026E000294A1268934200D334E7D31A994201D29F
:1026F000254B1C602C4B1C68002C00D164E7250086
:10270000264B9C4200D247E7254B9C4200D248E72B
:1027100042E79632FF32D31A52E701331371642332
:10272000D37057E71C4B9946194B9A469B4651E785
:102730001D4C25001D4E154B99462368434500D27C
:10274000FCE52B68BB4200D9F8E533889BB2002B2F
:1027500000D1F3E501F016FF4B461A681379FF2B01
:10276000EBD0013313716423D370E6E76221FF31AC
:10277000034803F07FFAECE50D4B00221A60EEE50A
:10278000A469000080100020901000208C10002010
:10279000B010002047020000D00F0020480B00209E
:1027A000DD0C0020800F0020F80D0020B21000206A
:1027B0007C100020F0B5DE4657464E464546E0B553
:1027C000C7B000AF06000D0004F084FB040004F065
:1027D0006FFB8A23FB1800221A802B79033BDAB2A5
:1027E000082A00D928E29300CF4AD3589F46AB78F5
:1027F0001B09E8780001184303F0B6FBFF24200012
:10280000BD4647B03CBC90469946A246AB46F0BD9B
:102810006A79AB791B02134325D0022B00D0A2E0CA
:1028200004F0E0F98A23FC18E91D0222200004F0DC
:10283000E9FA218801296BD0BC4B1A880023002AB1
:1028400011D0BB4CB94A9446DA00D21AD2001059C2
:10285000CA1892B20270120A427001339BB26246E9
:1028600012889A42F0D89023FA188C3B137193780F
:102870000F218B4301210B439370A9780909EB7851
:102880001B010B431B0110880F2101400B431380D8
:10289000EB46A64C2288013253009A18D3009B1AAB
:1028A0000733DB08DB006A46D31A9D46E84604F08E
:1028B0000DFB0100684604F003FA2388002B50D07A
:1028C000002401209A4B9A46984B9946451CADB27C
:1028D000E100091BC900514443001B18D800C01A6D
:1028E000404403F0DFFC0134A4B228004B461B88AF
:1028F000A342EBD86B00ED18EB005B1B9BB242468A
:1029000090217918300002F047FEDD46002476E77A
:102910008A23FB1802221A80844B1B88002BA2D02A
:1029200000230021824A9146804A94460BE08A1C8B
:1029300092B20270120A4270013101339BB26246B8
:1029400012889A428FD9DA00D21AD200484610581B
:10295000027890464278120244462243012AE6D188
:10296000EBE70125C6E742001018C200101A241830
:102970009846A04404F0AEFAD2239B009C466044E3
:10298000804508D822002900300002F07FF9041E9B
:1029900006D0002433E7F521664803F06BF9F1E730
:1029A00003F000FD2BE76A79AB791B021343FF2488
:1029B000002B00D023E708333B71BB780F229343F1
:1029C000BB70310030310C3AF81D04F01BFA0323C0
:1029D0007B710023BB71AA781209EB781B011343AA
:1029E0001B0139880F220A4013433B803900300015
:1029F00003F08CFF002402E76A79AB791B021343D2
:102A0000FF24002B00D0FAE609333B71BB780F227C
:102A10009343BB700C3A4849F81D04F0F3F90323C3
:102A20007B710023BB71AA781209EB781B01134359
:102A30001B0139880F220A4013433B8039003000C4
:102A400003F064FF0024DAE66A79AB791B021343D2
:102A5000FF24002B00D0D2E607333B71BB780F2256
:102A60009343BB700C237B710023BB71AA781209BE
:102A7000EB781B0113431B0139880F220A401343D3
:102A80003B802E4B19682E4B1A682E4B1B68F97130
:102A9000080A3872080C7872090EB972FA72110AB3
:102AA0003973110C7973120EBA73FB731A0A3A74E4
:102AB0001A02120E7A741B0EBB743900300003F038
:102AC00025FF00249BE66A79AB791B021343FF24A0
:102AD000002B00D093E60A333B71BB780F2293435F
:102AE000BB7007237B710023BB71AA781209EB78B6
:102AF0001B0113431B0139880F220A4013433B80FB
:102B00001149124B1A680A609B888B803723F35C4B
:102B10008B710722F81D04F075F93900300003F0BD
:102B2000F5FE00246BE6C046786C0000C210002061
:102B3000E00C00209C6C0000AC100020ACF7FF1FE4
:102B4000B0F7FF1FB4F7FF1F6010002070100020C7
:102B50003400183410220021200004F075F96A793D
:102B6000AB791B021343102B03D910226A71002288
:102B7000AA71E8790D281ED02B00083329001731DF
:102B80001A780D2A17D001339942F9D16B79AA79B5
:102B900012021A4320239843413819280BD8002ADF
:102BA00009D0E91D200004F02DF92100300003F0C8
:102BB0004BFB002423E60021300003F045FB3100ED
:102BC00008311022200004F01DF9002417E66B796B
:102BD000AA7912021A43E91D8C24381904F012F95B
:102BE000AA781209EB781B0113432E22B3541B0A57
:102BF0000132B35411493B19186800F011FF03F07A
:102C000031FF80B22C23F054000A0133F05404F059
:102C100031F92823F054020A0133F25403021B0E47
:102C20002A22B354000E2B23F0540024E7E5280099
:102C300003F03EFD0024E2E5FF24E0E500007A44D5
:102C4000F0B5DE4657464E464546E0B583B00090A7
:102C50000F0001921C000CAB1B7899460DAB1B7842
:102C60009A46BF4B1A881B889BB2092B09D80029AA
:102C700007D0BC4B1B68BC4A934202D2BB4A93426A
:102C800003D2BB49BB4802F0F5FFB54B1B889BB292
:102C9000082B00D95BE1002004F0E5F8B14B1D687A
:102CA0002900B54B1A68531B98469BB29B46B34B01
:102CB0001B685B1B2A19B248824200D9ABE01B0497
:102CC0001B0CD618864200D9C9E0AE4B1B689D424A
:102CD00000D8EAE0AC4B1B68994202D89E4200D370
:102CE000E6E0A04B1A60A54B1E6043461A04120C86
:102CF0009C4B1B689B18A04A13609B4A2E00934272
:102D000000D3DAE0974B1B6818005A46062A00D811
:102D1000D8E0072229009B4604F074F8012004F053
:102D2000A2F85846073043461A04120C073AE91D28
:102D300004F068F803223900300004F063F8002042
:102D400004F091F8864A1188904B090159188C803B
:102D500011880901CE50118809015918009888601E
:102D6000118809015B184946197313889BB2002B1F
:102D700000D1B1E07A4A138801339BB213801388E3
:102D80009BB2092B00D9D0E0012004F06CF8534627
:102D9000002B00D1CEE0F01CA21FF91C04F032F889
:102DA0003419E31E019A1A70A31E170A1F70013C02
:102DB000534623704846002800D1C9E0744B1B8855
:102DC0009B00744A9B58002B03D07349694802F05A
:102DD00051FF6F4B1B889BB2002B0BD06D4B1B68B8
:102DE000624A934202D3604A934203D36B496148DB
:102DF00002F040FF002004F036F8654A13889B007B
:102E000064495E50138801339BB21380012004F0A3
:102E10002AF800209CE01B041B0C544A991809193D
:102E200058480068824201D8814213D2564800684F
:102E3000824201D881420DD212194A490A604146A4
:102E40000904090C89184C4801609B184B4A13600F
:102E5000464E57E7012004F006F8FF2078E0494885
:102E60000068854215D9484E3668B14201D8B24251
:102E700011D23E4AD318824201D8834210D2B242C4
:102E800001D8B3420CD2374A384911603B4A13602B
:102E90002BE78242E7D3012003F0E5FFFF2057E054
:102EA000012003F0E0FFFF2052E09E4200D211E734
:102EB000012003F0D8FFFF204AE039492D4802F0F5
:102EC000D9FE1FE743461A04120C290003F09AFFAB
:102ED000012003F0C8FF2DE72C4B1D68002D00D109
:102EE00048E7AB46214B9D4202D31F4B9D4204D382
:102EF0000A21FF311F4802F0BDFE1A4B1B68E91A78
:102F00009B4503D829009631FF31C91A1E4A126821
:102F1000934206D2D31A994200D32BE71A4B1D6075
:102F200028E79632FF32D31AF5E71E49114802F01E
:102F3000A1FE29E7F01C621FF91C03F063FF34199E
:102F4000A31E019A1A70013C170A277032E7FF206E
:102F500003B03CBC90469946A246AB46F0BDC04685
:102F6000B210002080100020DD0C0020480B002053
:102F700047030000A469000088100020841000208E
:102F8000DC0C00209410002090100020F80D002090
:102F9000B0100020D00F0020CD030000CE030000B1
:102FA0008F030000B6030000F8B543025B0ADA00A5
:102FB000DE4693464A02520A454690464E465746DA
:102FC0004446E0B54A0047003F0EE400120EA14619
:102FD0009C463E00C50FC90FBC1AFF2A00D177E0FE
:102FE00001208246504641408D4200D180E0002CB5
:102FF00051DD002A00D073E04B46002B00D1DDE00C
:10300000013C002C0FD0FF2F00D1A5E001231B2C89
:1030100009DC20224946121B91404B460A00E3403E
:10302000511E8A4113435A46D31A5A0100D4C0E0B4
:103030009B019C09200003F015FC23000538834008
:10304000864200DDC4E0861B1A0020200136F240D3
:10305000861BB3405C1EA341002613435A0704D0CD
:103060000F221A40042A00D004335A0100D4A3E0EE
:103070000136F7B2FF2E00D1A7E09B015B0A580290
:10308000FF05400AED07384328433CBC904699466B
:10309000A246AB46F8BD002C4FD1FE247A1C144248
:1030A00000D099E05A46002F00D000E1002A00D15C
:1030B000F1E04A46002AE2D04B465A46D31A5A015A
:1030C00000D402E14B465A460D009B1A0026C5E784
:1030D0004846002800D183E78D4251D0002CDADD2C
:1030E000FF2F39D080234A46DB041A4391468DE7EF
:1030F000002C45DD002A3AD0FF2F2DD080234A46F0
:10310000DB041A43914601231B2C09DC202249468B
:10311000121B91404B460A00E340511E8A41134363
:103120005B445A0145D50136FF2E4ED001226E492F
:103130001A405B080B40134390E7D41B0D00002F8F
:103140006FD15B46002B00D18FE0013C002C00D1F9
:10315000C2E0FF2A6CD1C4466346002B35D08023E1
:103160006246DB0313435B025B0AFF2787E74B469C
:10317000002B23D0013C002C74D0FF2FC3D1EBE7F0
:10318000002C35D1FE227E1C324200D089E05A4606
:10319000002F6DD1002A00D1A3E04A46002A00D1B9
:1031A0006DE75B464B4400265A0102D54F4A013673
:1031B00013405A0700D053E7DB089C46FF2ECBD0C4
:1031C00063465B025B0AF7B259E7FF27002356E725
:1031D000464A361A134041E74B465A46D41A630111
:1031E0006FD4002C00D025E700250027002346E7F8
:1031F000D11B002F2CD0FF2AADD080235846DB04F2
:103200001843834601231B2908DC5B4620245846CB
:10321000CB40611A8840411E884103434B4416004D
:103220007FE7FF2A97D080235946DB0419438B465A
:1032300001231B2C08DC20215B465846E3400C1B75
:10324000A040411E8841034349461600CB1AECE6D4
:103250005B46002B09D001390029DFD0FF2AD1D1EC
:10326000C44679E75B464B445BE7C4461600A5E7D6
:10327000002A00D16FE74A46002A00D16CE780227D
:10328000D203134200D167E74346134200D063E7FD
:103290000D00C44660E74B46002B1AD00D00434694
:1032A000EDE6FF2E91D05B464B445B0881E7002A98
:1032B000E1D14B46002BEBD180230025DB03FF2718
:1032C000DDE64B460D009C1AB4E60026002B00D02C
:1032D0006FE700250023D2E64B46594616005B1ADD
:1032E000A3E64346CBE6C046FFFFFF7DFFFFFFFBA3
:1032F000F80F00201C0000000000000068100020F3
:1033000006000000000000006E1000200200000017
:10331000000000004010002010000000000000002D
:103320003C10002004000000000000007610002087
:1033300002000000000000007810002004000000DF
:1033400000000000501000201000000000000000ED
:103350007C1000200400000000000000801000200D
:1033600004000000000000008410002004000000A1
:103370000000000088100020040000000000000091
:10338000800F00205000000000000000DE0C002034
:103390000200000000000000170F002001000000E4
:1033A000000000008C10002004000000000000005D
:1033B000480B00209501000000000000D00F002005
:1033C0002800000000000000B010002002000000F3
:1033D0000000000090100020040000000000000029
:1033E000F80D0020A000000000000000B210002036
:1033F0000200000000000000941000200400000003
:103400000000000067100020010000000000000024
:10341000B41000200200000000000000B6100020E0
:103420000200000000000000B810002002000000B0
:1034300000000000981000200400000000000000C0
:10344000180F00206800000000000000BA100020E3
:103450000200000000000000DD0C00200100000060
:1034600000000000AF10002001000000000000007C
:10347000980E00207F00000000000000BC1000201B
:103480000200000000000000CA100020010000003F
:103490000000000000000020000800000000000004
:1034A000BE10002002000000000000009C10002060
:1034B0000400000000000000A01000200400000034
:1034C0000100000000A20000C01000200200000067
:1034D0000100000000080000C210002002000000EF
:1034E00000000000E00C00201801000000000000B7
:1034F00014100020140000000000000060100020E4
:103500000700000000000000A410002004000000DC
:1035100000000000C41000200200000000000000B5
:10352000701000200600000000000000281000209D
:103530001400000000000000AC1000200300000098
:103540000100000001020000C6100020020000007F
:1035500000000000C8100020020000000000000071
:10356000000800204803000000000000A810002010
:103570000400000000000000000000000000000047
:10358000F0B5D6464F464646C0B5A6B000232593B3
:10359000249303F06FFC8B4B1B68C01A8A4B5B793A
:1035A000984206D801F0BEF80024884B9846884D12
:1035B0004AE003F05FFC834B1B68C01A824B5871D2
:1035C000F0E7002759E000265DE000265BE090214F
:1035D000804802F04FFB7368002B33D024A92000F1
:1035E000FDF718FC00282FD1736824993000984704
:1035F0002AE07068434258414042C0B20028EAD1F4
:1036000024A92000FDF706FC00281DD124993000D4
:10361000FFF7D0F800280CD07368002B0DD073682A
:103620002499300098470FE0501E82415042C0B2AA
:10363000E4E7249800F010FD06E06321654802F0FD
:1036400019FBECE70134A4B225A92000FEF71CFC0D
:10365000FF2835D02598434619880029B5D02B6816
:103660009842AED05A4A01239EB2B142ABD91F0054
:10367000966B01333832B042F6D1FE00F61BF600ED
:10368000534B9C4666446B46D91D00230B7002AA1F
:103690001380200003F06AFA002811D102A920004B
:1036A00003F026FA00280BD102AB1A886B46DB79AF
:1036B0000B2B90D86B46DB799B004749CB589F4634
:1036C00003F0EAFB414B1B88002B71D00024404FD4
:1036D0003E000CE0E3001B1BDB00F3189B8D002B6E
:1036E00019D10134A4B2394B1B88A34260D92500FB
:1036F000E3001B1BDB00DA59117853781B020B43E4
:10370000E8D13349E3001A1BD2008A180020D08583
:1037100090859062E5E703F0ADFBE3001B1BDB0047
:103720002B4A944663449A6A801A9B8D9842D8D358
:1037300002A9E3001A1BD200604612581078804696
:103740005078000242461043020191460A88904692
:103750000F229246404610404A4602430A80181BF8
:10376000C0006044C38D1B0198464B8852461A40E6
:10377000434613434B80F0221340012213438B70C6
:103780000D230B716B4400221A705A704368002B92
:1037900005D0E000001BC0000D4A8018984703F0D8
:1037A00069FBEB005D1BED00094B5D19A86298E712
:1037B00003F060FB034B186026B01CBC9046994692
:1037C000A246F0BDA410002070100020C2100020FE
:1037D000E00C00209C6C0000346A0000F8B5CE4676
:1037E000474680B507008846834B1B889BB20A2B4F
:1037F0002AD0002003F037FB7F4A11887F4BC90095
:103800004046C8501188C9005B185F6013889BB29E
:10381000002B00D1C6E0784C238801339BB2238073
:10382000012003F020FB2088642358430A2101F083
:10383000E7FBC0B2724B1B685A78824200D25870C4
:103840000CBC90469946F8BD6B4B1A881B889BB2FE
:10385000002B16D00024694E674B9946002003F0D8
:1038600002FB651CE300EA00F318B21803CA03C3A5
:10387000012003F0F8FAACB24B461B889BB29C4285
:10388000ECD3002003F0EFFA5B4B1B889BB2002BBC
:1038900004D0594A1388013B9BB21380012003F0E6
:1038A000E2FA584B012252421A60574B1C68002C16
:1038B0001DD02500554B9C4202D3554B9C4204D34E
:1038C0000A21FF31534802F0D5F9534B1B68E11A26
:1038D0009D4203D821009631FF31C91A494A126826
:1038E000934253D2D31A994201D2464B1C60434BA8
:1038F0001C68002C1DD02500444B9C4202D3444B35
:103900009C4204D30A21FF31424802F0B3F9424BF2
:103910001B68E11A9D4203D821009631FF31C91A74
:10392000384A1268934235D2D31A994201D2354BA4
:103930001C603A4B1C68002C1DD02500334B9C4268
:1039400002D3334B9C4204D30A21FF31314802F0A9
:1039500091F9314B1B68E11A9D4203D82100963141
:10396000FF31C91A274A1268934217D2D31A9942D3
:1039700001D2244B1C60224B1A681379FF2B00D113
:1039800037E7013313716423537032E79632FF3205
:10399000D31AA8E79632FF32D31AC6E79632FF321F
:1039A000D31AE4E7154B1C68002C00D133E725003F
:1039B000164B9C4202D3164B9C4204D30A21FF3182
:1039C000144802F057F9144B1B68E11A9D4203D8C2
:1039D00021009631FF31C91A0A4A1268934206D271
:1039E000D31A994200D316E7064B1C6013E79632B0
:1039F000FF32D31AF5E7C046DE0C0020800F00200E
:103A00008C10002090100020D00F0020480B0020C8
:103A1000DD0C0020A469000080100020F80D0020BB
:103A2000F0B54F464646D64644024500C0B58846E6
:103A3000640A2D0EC70F002D49D0FF2D4FD08023D3
:103A4000E400DB041C43002399469A467F3D43462D
:103A500042465E02D20F5B00760A1B0E904646D0AD
:103A6000FF2B12D080220020F600D2047F3B1643A9
:103A7000ED186A1C434694464A467B400F2A00D9FB
:103A800074E0704992008A589746FF35002E54D151
:103A90004A4602231A4391460220EAE7434634008D
:103AA00082465246022A2AD0032A00D1C3E0012AC4
:103AB00000D082E0002200246402D205600ADB0705
:103AC000104318431CBC90469946A246F0BD002CFA
:103AD00027D104239946033B00259A46B7E7002CDB
:103AE00019D108239946063BFF259A46AFE7002ED9
:103AF00008D14A4601231A4391460120B9E7FF2223
:103B00000024D9E7300002F0ADFE431F2D1A9E407D
:103B1000763D0020ADE70C239946093BFF259A46E8
:103B200095E7200002F09EFE7625431F9C4000236F
:103B30006D422D1A99469A4689E74A4603231A434D
:103B40009146032095E73B00ABE780240023E40384
:103B5000FF22B1E78023DB031C4245D01E4243D144
:103B600033435C02640A4346FF22A5E7200C240489
:103B7000210C0F00320C3604360C77435143464378
:103B8000504389193A0C5218964203D980214902B0
:103B9000884640443F0411043F0CC9198C01661E3D
:103BA000B441890E2143140C2418A4010C432201B2
:103BB0003CD50122610814400C4360467F30002848
:103BC0001ADD620704D00F222240042A00D00434F8
:103BD000220103D560461C4A80301440FE288EDC4A
:103BE000A401640AC2B267E78020C00304436402F0
:103BF000640A3B00FF225FE70122101A1B2800DD48
:103C000058E762469E3221009440C140621E9441B2
:103C10000C43620704D00F222240042A00D004344F
:103C2000620105D4A401640A002245E7AC46C4E75A
:103C30000122002440E78022D20314436402640A74
:103C4000FF2239E730670000FFFFFFF7F0B5DE46DF
:103C500057464E464546E0B5A3B003F02FF901287C
:103C600007D003F075F802F0F5FF754C754D764EF0
:103C700013E002F07EFEA220000202F04FFF23B00C
:103C80003CBC90469946A246AB46F0BD03F0F8F81E
:103C900003F06CF86A4B01221A70FFF771FC23786D
:103CA000052BFAD89B00EB589F46674B1B78022BDD
:103CB0000FD0032BF1D1654B1B68654A1360654A31
:103CC00093420AD8102002F0D3FC5D4B03221A70F5
:103CD000E3E75B4B02221A70DFE7202002F0C8FC0A
:103CE000DBE7594B1B78042BD7D1594B1988A220FD
:103CF000000202F0F1FD122002F0BAFC504B042247
:103D00001A70CAE7504B1B78052B11D04E4B1B780D
:103D1000062BC2D18021504B1868504A090102F08D
:103D200099F9142002F0A4FC454B05221A70B4E75F
:103D3000454B00221A704A4B1B889846494B1F88F6
:103D4000B84515D3484B9A461B8899464348484482
:103D50003A003E4903F056F84B46FB185246138092
:103D60004346DF1B3E4B1F80132002F081FCCDE752
:103D70003D4B9B461888394B9C466044424633492C
:103D800003F040F8344F354A80210901386802F0C9
:103D900061F93B6880221201944663443B60FF2135
:103DA0002E4803F051F82E4B99461B8898462D4B10
:103DB0001B889A4642469B1A1F00244A424411001F
:103DC0001A00264803F01EF85A46178080231B016C
:103DD000434452469B1A4A461380C5E73378072B63
:103DE00000D05AE702F082F80C236A4613719378E8
:103DF0000F229343062213436A46937012880F23BF
:103E00001340102213436A4613806B4602225A71F4
:103E100000229A7115236A46D371107269460020F8
:103E200002F074FD064B01221A7036E7012002F001
:103E3000A1FDFA20800002F0BDFF02F083FE2CE716
:103E4000CA100020846D0000AF100020980E0020E2
:103E50009C100020FE5D0300A01000200000002048
:103E6000C0100020BC100020BE100020F8B5DE46B7
:103E700057464E464546E0B583466D4B1B889BB280
:103E8000002B04D06A4B1B889BB2092B03D96949CC
:103E9000694801F0EFFE0025654B9946674B9A464D
:103EA00037E0634B1B889BB2984219D22C00634EBB
:103EB0005F4B9846002002F0D6FF671C3B019A59E1
:103EC0002401A251F3189B889BB23419A3800120CE
:103ED00002F0C9FFFCB243461B889BB2A342E9D85B
:103EE000002002F0C0FF524B1B889BB2002B0DD06C
:103EF0004F4A1388013B9BB2138011884F4B090135
:103F00000020C850128812019B189880012002F0EE
:103F1000AAFFA8B24B461B889BB298420CD22B0139
:103F2000524699580A7812094B781B0113435B4596
:103F3000B7D00135EDB2ECE7414B012252421A6095
:103F4000404B1C68002C1DD025003F4B9C4202D3E7
:103F50003E4B9C4204D30A21FF31374801F08AFED0
:103F60003B4B1B68E11A9D4203D821009631FF317B
:103F7000C91A334A126893424ED2D31A994201D2D7
:103F80002F4B1C60334B1C68002C1DD025002E4B82
:103F90009C4202D32D4B9C4204D30A21FF31264878
:103FA00001F068FE2A4B1B68E11A9D4203D82100EC
:103FB0009631FF31C91A224A1268934230D2D31A7D
:103FC000994201D21E4B1C601C4B1C68002C1DD05A
:103FD00025001D4B9C4202D31C4B9C4204D30A215A
:103FE000FF31154801F046FE194B1B68E11A9D424E
:103FF00003D821009631FF31C91A114A1268934241
:1040000012D2D31A994201D20D4B1C603CBC90468F
:104010009946A246AB46F8BD9632FF32D31AADE7B9
:104020009632FF32D31ACBE79632FF32D31AE9E742
:10403000B2100020F6030000A4690000F80D002073
:1040400090100020D00F0020480B0020DD0C002035
:1040500080100020800F0020F8B5DE4657464E46FF
:104060004546E0B582460024664B9846664B994625
:1040700043461B889BB2A34200D8BCE0E3004A46FB
:104080009B58534502D00134A4B2F1E75D4B1B8825
:104090009BB29C4205D95B4B1B889BB20A2B00D973
:1040A00098E0584B1B889BB29C4216D22700564E74
:1040B000544B9B46002002F0D6FE7D1CFB00EA001C
:1040C000F318B21803CA03C3012002F0CCFEAFB24A
:1040D0005B461B889BB29F42ECD3002002F0C3FEDC
:1040E000484B1B889BB2002B04D0464A1388013BE7
:1040F0009BB21380012002F0B6FE444B01225242D3
:104100001A60434B1D68002D1DD02E00414B9D426F
:1041100002D3414B9D4204D30A21FF313F4801F0B5
:10412000A9FD3F4B1B68E91A9E4203D8290096312E
:10413000FF31C91A354A1268934250D2D31A9942B4
:1041400001D2324B1D60304B1D68002D1DD02E005A
:10415000304B9D4202D3304B9D4204D30A21FF31A4
:104160002E4801F087FD2E4B1B68E91A9E4203D8AA
:1041700029009631FF31C91A244A1268934232D27B
:10418000D31A994201D2214B1D60264B1D68002D88
:1041900000D16DE72E001F4B9D4202D31E4B9D4266
:1041A00004D30A21FF311D4801F064FD1C4B1B683C
:1041B000E91A9E4203D829009631FF31C91A134AE1
:1041C0001268934213D2D31A994200D350E70F4B8F
:1041D0001D604DE71449114801F04CFD61E796322E
:1041E000FF32D31AABE79632FF32D31AC9E79632C1
:1041F000FF32D31AE8E73CBC90469946A246AB464C
:10420000F8BDC046DE0C0020800F0020901000207A
:10421000D00F0020480B0020DD0C0020A469000016
:1042200080100020F80D00207D020000F8B5CE4679
:10423000474680B5050083781B071B0FDAB2062AB4
:104240003ED89B00634AD3589F46634A6423D35A9F
:104250009BB20026002B33D017009146642398466A
:10426000F400A41B64001E34E4192B781B09697840
:1042700009011943200002F0C5FB002800D07FE0AF
:104280000136B6B24B4642469B5A9BB2B342E7D880
:1042900016E0514A6423D35A9BB20024002B0FD05E
:1042A00016006427E000001B40001E308019290022
:1042B000FFF794FA0134A4B2F35B9BB2A342F1D8A6
:1042C0000CBC90469946F8BD434A6423D35A9BB22E
:1042D000002BF5D003781B09417809011943138C91
:1042E0009BB299424AD00023160064241700013380
:1042F0009BB2325B92B29A42E2D91800DA00D21A2B
:104300005200BA18128C92B28A42F0D1C300181A25
:1043100040001E30304BC0182900FFF75FFACFE78E
:104320002D4A6423D35A9BB2002BC9D003781B09B2
:10433000417809011943D38B9BB299421CD00023C9
:1043400016006424170001339BB2325B92B29A428A
:10435000B6D91800DA00D21A5200BA18D28B92B22B
:104360008A42F0D1C300181A40001E301A4BC01800
:104370002900FFF733FAA3E70020F3E70020C5E7A1
:1043800029002000FFF72AFA9AE7027812094378F9
:104390001B01134318D0104A6423D35A9BB2002444
:1043A000002B00D18CE716006427E000001B4000C2
:1043B0001E3080192900FFF711FA0134A4B2F35B13
:1043C0009BB2A342F1D87BE701000448FFF706FA4D
:1043D00076E7C046186D0000180F0020360F002049
:1043E000F0B557464E464546DE46E0B5040083B07C
:1043F0000D00924699468B4230D82DD04946504602
:1044000002F0CCFC29000600200002F0C7FC331AA1
:104410009846203B9B4633D45A46534693404246E7
:104420001F00534693401E00AF423AD8AF4200D11E
:104430007BE05B46A41BBD41002B00DA78E0002244
:1044400000230092019301235A46934001930123D4
:1044500042469340009328E08242CFD900220023B5
:10446000009201930C9B002B01D01C605D600098B2
:10447000019903B03CBC90469946A246AB46F0BDBC
:10448000424620239B1A5246DA40414613004A46D0
:104490008A40170042461F43534693401E00AF42D6
:1044A000C4D900220023009201934346002BD9D0A7
:1044B000FB079C46614672080A437B0846460EE0AD
:1044C000AB4201D1A2420CD8A41A9D41012024196B
:1044D0006D410021013E24184D41002E06D0AB4213
:1044E000EED9013E24196D41002EF8D100980199B2
:1044F0005B4600196941002B25DB2B005A464446D8
:10450000D3402A00E2401C005B461500002B2BDB49
:1045100026005F46BE40330026004746BE403200BC
:10452000801A9941009001919CE7A342B9D880E795
:104530004246202300219B1A002200910192012271
:10454000DA40019283E7424620239B1A2A0046461E
:104550009A402300F340444613432A00E2401C00E3
:104560005B461500002BD3DA2023424626009B1A17
:10457000DE402F00B4464646B74066463B00334314
:10458000CAE7C046F8B55E4B1B889BB2002B04D02F
:104590005B4B1B889BB20A2B04D9F7218900594831
:1045A00001F068FB564B1B889BB2002B17D00024F0
:1045B000554D534F002002F056FC661C33015A59EA
:1045C00024016251EB189B889BB22C19A380012017
:1045D00002F049FC3B889BB234009E42EADB00209B
:1045E00002F041FC464B1B889BB2002B0DD0444A85
:1045F0001388013B9BB213801188434B09010020B3
:10460000C850128812019B189880012002F02BFCE0
:104610003E4B012252421A603D4B1C68002C1DD0BB
:1046200025003C4B9C4202D33B4B9C4204D30A21C5
:10463000FF31344801F01EFB384B1B68E11A9D42E4
:1046400003D821009631FF31C91A304A12689342CB
:1046500049D2D31A994201D22C4B1C60304B1C68B2
:10466000002C1DD025002B4B9C4202D32A4B9C4290
:1046700004D30A21FF31234801F0FCFA274B1B68C1
:10468000E11A9D4203D821009631FF31C91A1F4A11
:10469000126893422BD2D31A994201D21B4B1C6051
:1046A000194B1C68002C1DD025001A4B9C4202D3CC
:1046B000194B9C4204D30A21FF31124801F0DAFA67
:1046C000164B1B68E11A9D4203D821009631FF3139
:1046D000C91A0E4A126893420DD2D31A994201D2D6
:1046E0000A4B1C60F8BD9632FF32D31AB2E79632FD
:1046F000FF32D31AD0E79632FF32D31AEEE7C04624
:10470000B2100020A4690000F80D002090100020D5
:10471000D00F0020480B0020DD0C0020801000206E
:10472000800F0020F0B5A5B0FCF790FE0023239386
:104730005A4E9AE07A79BB791B021343022B2DD093
:10474000042B60D0002B00D08FE055490B8801333B
:104750009BB20B8001AD00232B7109336B44022205
:104760001A7000225A70BA781209FB781B011343A1
:104770001B0128880F22024013432B80AB780F22A5
:10478000934306221343AB7002220B20684402F0CD
:1047900039FB2900200000F0BDFC66E03F4B187F8C
:1047A0000737013040009C4660440222390002F085
:1047B00029FB022239006B46981C02F023FB374B81
:1047C0001B881B051B0D6A46138001AD00232B714E
:1047D00009336B4404221A7000225A702A880F236E
:1047E00013402B80AB780F22934306221343AB7008
:1047F000042269460B20684402F004FB29002000D3
:1048000000F088FC31E0254B1B881B0517D1F91DF2
:104810000422684602F0F6FA6B465A88338812057D
:10482000120D1B0B1B0313433380337F6A46128820
:104830005B00F3185A80200000F0CCFF15E0174B06
:104840001B881B0B1B03154A1380002001F012F874
:10485000DDE702F0C3FAFF28FBD0F91D042201A80E
:1048600002F0D0FA019800F0CDF823A8FBF7B0FFD2
:10487000002810D1239F380000F0D2FC04003B79BF
:10488000012BF2D0002B00D154E7022BE1D023986A
:10489000FFF7CCFCE9E725B0F0BDC046180F0020BB
:1048A000BA100020F0B5D6464F464646C0B582B095
:1048B000804616000193504B1F88FB00DC1BE40070
:1048C0004E4D2B19994688B201F060FC60514B4661
:1048D00042465A603178197200290CD04846083097
:1048E0000123D9B2F25CC254002A04D00131C9B20A
:1048F00001330F2BF5D1414DFB00DB1BDB00EB1827
:10490000591800230B72210018314D192B606B6070
:10491000AB60EB60384B1B881801C018FF239B026B
:104920009C4660442A00102102F07EFA2978202358
:104930000A009A431300413BDAB2192393429B4188
:104940005B424A4251410B4337D1230030332B495C
:104950005B1800221A809A70F800C31BDB00CB188A
:104960001E00303601AA157835700136557835703D
:10497000013692783270224A33331A70160A5E700A
:10498000160C9E70120EDA70C71BFF007A5837346F
:10499000641813009472220ADA722202120E1A7339
:1049A000240E5C73144A138801331380484602B006
:1049B0001CBC90469946A246F0BD3278FB00DB1B3A
:1049C000DB000E49CB181A76002A0CD04846183066
:1049D0000123DAB2F15CC154002904D00132D2B211
:1049E00001330F2BF5D1F900C91BC900034B5B182C
:1049F0009A1800231376A8E7C2100020E00C0020CC
:104A00007010002070B505003F4B404A5A80404A64
:104A1000136A04210B4313623E4C23680226B343FE
:104A20002360010B00053C4A002301F061FE404277
:104A300080B2A081394B2360394B636023683343D4
:104A400023602200D369002BFCD1324B00249C75DB
:104A500004229A75334BC22080001A583249114003
:104A6000C02212020A431A50802292001A602900C2
:104A7000294800F0C5FA80B22C4B1880224B2C4AF2
:104A80005A80234A116ADB0C0B431362294B1C80AA
:104A90001A00D37B5BB2002BFBDB264A602313801A
:104AA0005C3B5371214B198889B20B035B1A9B0045
:104AB0005B1A9B00013B9BB21382002050730123C1
:104AC0005373184BC424A4001A591B491140C02227
:104AD00012040A431A518022D2021A600C4A536906
:104AE00020210B435361154A154B5A6315499963AD
:104AF000154959613F21585414495964144911808A
:104B0000144A1A8070BDC046000C004014400000DA
:104B10000004004000080042006CDC020401124066
:104B20000002030000E100E0FF00FFFF761000201C
:104B30001B400000002C0042FFFF00FF401000203F
:104B400000480041501000208181818100028000D6
:104B500009040000020F000030B583781B071B0F0B
:104B6000DAB2062A00D97FE09B00454AD3589F4617
:104B7000444A6423D35A9BB2002B00D176E00378D9
:104B80001B09417809011943138C9BB2994200D14A
:104B90006EE000223B4C64202500013292B2235A81
:104BA0009BB2934233D9D3009B1A5B00EB181B8C4A
:104BB0009BB28B42F1D1012051E0324A137B10218C
:104BC0008B4313732F4A6423D35A9BB2002B51D0CB
:104BD00003781B09417809011943D38B9BB2994291
:104BE0004AD00022274C64202500013292B2235A79
:104BF0009BB2934209D9D3009B1A5B00EB18DB8B65
:104C00009BB28B42F1D1012029E0002027E0002057
:104C100025E003781B094078000118431A4B9C4695
:104C2000604443425841C0B219E0164A137B102138
:104C30008B4313730278120943781B01134307D186
:104C4000104A127F022A03D00E4A527F002A15D042
:104C50000C4A12881205120D0020934200D030BD7C
:104C6000581E8341D8B2FAE70020F8E70020F6E7A3
:104C70000120F4E70020F2E70120F0E70120EEE751
:104C8000FC6C0000180F002001F0FFFFF0B5C646D5
:104C900000B50C009046404B1988002900D177E000
:104CA0003E4B984259D01A00002301339BB28B42ED
:104CB0004FD038329042F8D1394A93426AD01E0020
:104CC0009A0038495258002A49D19B006179A2794B
:104CD00012020A4333495A50334B1B88002B06D02B
:104CE000803B6179A27912020A43934243DCB3000C
:104CF0002E4A9F586279A3791B0213431A1C9BB258
:104D0000802B00D9802295B24346D819E11D2A0094
:104D100002F078F87F19B200244BD7506179A3795B
:104D20001B020B4320490B801E4BD3589F422AD8AD
:104D30006279A3791B021343FF20802B0AD8B600A7
:104D400000231A4AB350184A1380164AB350002061
:104D500000E0FF2004BC9046F0BD0023AFE761797E
:104D6000A3791B020B439A42B6D2AD2189001048A9
:104D700000F080FFB0E7B60000230C4AB3500A4AA7
:104D80001380FF20E6E70B49094800F073FFCFE7E7
:104D9000FF20DFE7FF20DDE7C2100020E00C00204D
:104DA000FFFF000028100020C41000201410002075
:104DB0009C6C0000D3020000F8B53C4B00221A6046
:104DC0009A603B4959600621196019680120014326
:104DD0001960384B38495980384CA36940210B433E
:104DE000A361374B47241A551E5D40273E431E558D
:104DF00039349C605C613A3C1A551D5D3D431D553C
:104E00009960596104315A545C5C04252C435C540C
:104E10005C5C01252C435C5412395C5C03263443F2
:104E20005C5445241A551A5D2A431A555A5C30249D
:104E300022435A54234C082323706070A37001331B
:104E4000E37020716371E279A3795B08D2019B184A
:104E50001D4A944663441A78D2B21A70002000F0BA
:104E60004BFFE279A3795B08D2019B18164A94465E
:104E700063441A78D2B21A70012000F03DFF134A41
:104E8000C12189005358FF2083433F3803435350C7
:104E9000102313600E4A137802210B4313700D4B3D
:104EA00082225A600C48FFF7ADFDF8BD10E000E02B
:104EB0007FBB0000000C00400540000000040040E3
:104EC00000440041681000203044004100E100E04F
:104ED000001800400040004140420F0030B585B04E
:104EE0000023039309336B440A226A4403A901A8EF
:104EF000FCF752FD002801D005B030BD01F05EFE88
:104F00000028F9D101998B7ACA7A12021A430B7BD5
:104F10001B041A434B7B1B061343364A127819783D
:104F2000914201D3092A32D91A7001998B7ACA7A2F
:104F300012021A430B7B1B041A434B7B1B061343C1
:104F40001B78092B23D92C4B5B7E002B08D00398B0
:104F50000278120943781B0113430B721B0A4B7230
:104F60000023244A1370244A5376039A13781B09AA
:104F7000507800011843FEF779FF09236B440A2299
:104F80006A4403A901A8FCF707FDFF28B4D0039ADF
:104F900091780F230B40012B1DD00124062B1AD032
:104FA00001F00CFE0028A7D1134D2C7601232B74A1
:104FB00001F0A3F9002001F056FF104BAB60012077
:104FC00001F051FF039B6B610A236B44198803981E
:104FD00000F0B0FB90E709236B441B780224002B00
:104FE000DED013781B09547824011C4363425C41D2
:104FF0000134D5E7DD0C0020180F00200953000014
:10500000002243088B4274D303098B425FD3030A07
:105010008B4244D3030B8B4228D3030C8B420DD31A
:10502000FF22090212BA030C8B4202D312120902A8
:1050300065D0030B8B4219D300E0090AC30B8B42E6
:1050400001D3CB03C01A5241830B8B4201D38B0394
:10505000C01A5241430B8B4201D34B03C01A524139
:10506000030B8B4201D30B03C01A5241C30A8B427C
:1050700001D3CB02C01A5241830A8B4201D38B0267
:10508000C01A5241430A8B4201D34B02C01A52410B
:10509000030A8B4201D30B02C01A5241CDD2C3097D
:1050A0008B4201D3CB01C01A524183098B4201D3F9
:1050B0008B01C01A524143098B4201D34B01C01AE4
:1050C000524103098B4201D30B01C01A5241C3085C
:1050D0008B4201D3CB00C01A524183088B4201D3CB
:1050E0008B00C01A524143088B4201D34B00C01AB7
:1050F0005241411A00D20146524110467047FFE723
:1051000001B5002001F0EAFE02BDC0460029F7D03B
:1051100076E77047F0B5D6464F464646C0B582B0F2
:1051200081460E000B780F2293430B700278437870
:105130001B02134320D01B051B0D0F221A40110127
:10514000B0780F2202400A43B2701B09F3707279E3
:10515000B3791B0213431A1C9BB2802B00D9802207
:1051600093B298461F000937BBB29A469A1E002197
:10517000294D0023072016E0284B1B881B051B0D1B
:10518000DBE743401D00013CE4B2002C06D06B007D
:105190009BB22FB21D00002FF5DAF2E7013189B280
:1051A0000B00914204DAF35C1B025D400824EEE739
:1051B0003000FFF7D1FC0200B1780F230B40012B28
:1051C00015D02100062B12D00191009053462A00E1
:1051D00031004846FDF734FDFF281BD0FFF77EFE67
:1051E000200002B01CBC90469946A246F0BD0100CA
:1051F000002AE9D03278120973781B011343210089
:10520000002BE1D0054B197BC9B247460A37BBB228
:105210009A46D9E70400E3E7FFFF0000180F0020DB
:1052200070B583781B071B0FDAB2062A03D89B00E0
:10523000324AD3589F4600205AE0314A6423D35A59
:105240009BB2002B55D003781B0941780901194303
:10525000138C9BB2994246D000231500642416009B
:1052600001339BB22A5B92B29A423ED91800DA000F
:10527000D21A5200B218128C92B28A42F0D1C300F4
:10528000181A40001E301E4BC01831E01C4A64231F
:10529000D35A9BB2002B2ED003781B094178090109
:1052A0001943D38B9BB2994219D000231500642473
:1052B000160001339BB22A5B92B29A4211D91800B0
:1052C000DA00D21A5200B218D28B92B28A42F0D1CE
:1052D000C300181A40001E30094BC01808E0002017
:1052E000F6E7002004E00020C9E7002000E00548C0
:1052F00070BD0020FCE70020FAE7C046E06C00002B
:10530000180F0020360F0020F8B50700304B586901
:10531000304A11884B1C9BB213803A78D2B2415C60
:10532000914217D12A4A127C002A13D0284A127BB4
:1053300052060FD4042B33D1002001F0C3FB002010
:1053400001F034F9224B1B7E022B3CD0204B224A29
:105350009A6029E01E4B01225A76002001F096F84F
:105360001C4B1B88012B0ED90024194E194D736953
:1053700018782018C0B201F027FD0134E4B22B8860
:10538000013B9C42F3DB3878C0B201F01DFD104BAD
:10539000114A9A6002221A760E4B1B88022B04D8FF
:1053A0000E49380001F076FBF8BD0D4B1868FFF789
:1053B000D3FB0028F4D10B4B198800F017FC044BE9
:1053C000094A9A60F0E7024B084A9A60ECE7C04647
:1053D000180F0020B6100020C5540000B4100020A3
:1053E00080100020B8100020E56E0000D569000094
:1053F00010B504000078C0B201F0E6FC2B4B1A880F
:105400002B4B1B889A4205D309D8284A13880133AD
:10541000138010BD2749200001F03CFBF5E7264A28
:105420001268D118C9790133D318DB791B022148DE
:1054300000880B43984214D020490B7B1020034373
:105440000B7393781B071B0F012B2CD093781B0732
:105450001B0F062B27D0FCF767FF184B184A9A60E2
:10546000D7E793781B071B0F012B0CD093781B07F2
:105470001B0F062B07D0104B1B681B79012B05D087
:10548000FAF72AFEE9E701F055FCF4E70B4C238814
:105490001B0B1B03238001F0CBF8002000F0EAF97E
:1054A00000232376D9E701F045FCD4E7B6100020AD
:1054B000B8100020B410002080100020180F002029
:1054C000E56E000010B504000078C0B201F07CFC6D
:1054D0002A4A138801339BB21380032B11D0072B68
:1054E0001DD0012B04D02649200001F0D3FA10BDB5
:1054F000244B01221A7400221A76214B013A1A8099
:10550000F1E7214B1868FFF727FB0028EBD11F4B71
:10551000198800F06BFB1B4B1D4A9A60E7E7174B9D
:1055200000221A80174B1B4A9A60174B1B685A7946
:10553000997909020A43802A14D859799B791B0268
:105540001943124B19800F4B1B7B5B0603D40029B8
:10555000C9D00FE08021002000F048FB094B0C4A25
:105560009A60C4E7094B80221A80064B1B7B80217E
:105570005B06EFD4012000F039FBB4E7B610002041
:10558000B4100020180F002080100020B810002058
:10559000E56E0000F1530000F0B5DE4657464E467A
:1055A0004546E0B585B001900C0091469A4601232E
:1055B0009B465346802B08D9DA09D1010123514576
:1055C00000DB00239BB29B46934402AB0022DA80AF
:1055D00006331B889BB29B453AD90025F427FF3739
:1055E0000BE04544ADB202AB9A1DDB8801339BB2A0
:1055F000138013889BB25B452AD253465B1B8022E3
:105600009046802B03DC53465B1B9BB29846E01D03
:105610004B465919424601F0F5FB53465B1B9BB2C2
:1056200063711B0AA37101F025FC0600210001989B
:1056300001F06CF9FF28D4D1FDF7A2FF01F01AFCAC
:10564000801BB842F2D90649064800F013FBEDE78B
:1056500005B03CBC90469946A246AB46F0BDC0465C
:10566000930200009C6C0000556E6B6E6F776E00AD
:105670005374617465000000536572766F0000001A
:10568000416E676C6500000044697374616E636508
:1056900053656E736F72000047617465000000000F
:1056A00044796E616D6978656C4D6F746F7200003E
:1056B000537465707065720044434D6F746F72006F
:1056C000496D75004C6967687453656E736F72003D
:1056D000436F6E74726F6C6C65724D6F746F720095
:1056E000566F6964000000004C6F616400000000A8
:1056F000566F6C7461676500436F6C6F72000000D9
:105700002E2E2F2E2E2F2E2E2F2E2E2F30345F6C3E
:1057100069622F4C756F732F7372632F726F75747C
:10572000696E675F7461626C652E63006572726F8B
:105730007200C04670B504001D480122037E13426A
:10574000FCD04B1E9BB21B4A1380012917D81A4D5F
:105750001A482B88028A92B219015B1A18498C46A2
:1057600063449342F5DA012000F090FE2278104B5A
:105770001A8502229A75142000F018FF70BD114B93
:105780001C600C4B00221A8064180F4B5C600F4A9F
:105790009A605980012000F079FE0D4940228B5C0F
:1057A000022003438B543E3A014B9A75E3E7C0460F
:1057B000000800426E10002076100020002C0042ED
:1057C000FEFF000078100020401000202808004252
:1057D00000480041F0B5A3B00400254DFA26B600FC
:1057E00000F08CFD002840D10023237263726B46C9
:1057F0009B780F229343012213436A4693701288C9
:105800000F231340102213436A46138000231371A1
:105810006B4600225A719A7169462000FFF77AFCA4
:1058200001F0DCFAFF28FBD0227A637A1B021343D3
:105830000BD00F4A137F5B00D318012149425980D6
:105840000223137700235377CAE701F013FB070005
:105850006B7F002BC4D0FEF765FF01F00BFBC01B74
:10586000B042F5D9FF2023B0F0BD0020FBE7C046D1
:10587000180F002070B50500164B174A1360174A21
:1058800013600933164A13600024164B1C8028222B
:105890000021154801F0D8FA144B1C805022002139
:1058A000134801F0D1FA134B1C80A02200211248AA
:1058B00001F0CAFA114B1C60114B1C60114B012204
:1058C00052421A600022104B1A70002D01D00F4B6B
:1058D0001D6070BD480B0020801000208810002043
:1058E00084100020B0100020D00F0020DE0C00201B
:1058F000800F0020B2100020F80D00207C10002046
:105900009410002090100020170F00208C10002011
:10591000F0B5420046024D024C00C30F760A120E4B
:105920006D0A240EC80FFF2A1FD0FF2C10D0002AAA
:105930001FD171427141002C01D1002D1ED00029D0
:105940000ED183421ED00221581E08400138F0BDFE
:10595000002D26D1002AF4D1714271410029F0D0E6
:105960000028F4D101204042F1E7002E19D1FF2C8C
:10597000EED0002CE5D1002DE3D1E4E70020002E8D
:10598000E5D0E0E7A24205DCEADBAE4202D8E7D38D
:105990000020DCE7414241414842022108400138F1
:1059A000D5E702204042D2E700B583B0142000F0D2
:1059B000FDFD1F4B1B7E5B0716D51D4B9B7D5B07BB
:1059C00012D51B4B1B8D6A46D01D0370194B9B686B
:1059D0009847194B1B889BB2002B0ED1144B072202
:1059E0005A8301321A7615E0114B5B8B9B0704D565
:1059F000104A137B40210B4313730D4B1B7E9B07F7
:105A000003D50B4B9B7D9B0706D4094B07225A837A
:105A100001321A7603B000BD002000F037FD0120EE
:105A200001F050F8024B02221A761A75EDE7C046D3
:105A300000080042180F00206E100020F0B5420050
:105A400046024D024C00C30F760A120E6D0A240E58
:105A5000C80FFF2A0DD0FF2C0FD0002A23D171428E
:105A60007141002C0FD1002D0DD10020002E14D03B
:105A70000DE0002E10D1FF2C15D1002D0CD1002AE5
:105A800003D171427141002908D1834210D0022113
:105A9000581E0840013800E00220F0BD0028FCD16B
:105AA00001204042F9E7002CEFD1002DEDD1EEE7C7
:105AB000A24205DCF2DBAE4202D8EFD30020ECE7D5
:105AC000414241414842022108400138E5E7C046D1
:105AD000F0B5C6461F4A204B00B50021934203D2C1
